
arduino.elf:     file format elf32-avr

Sections:
Idx Name          Size      VMA       LMA       File off  Algn
  0 .data         0000000c  00800100  0000095e  000009f2  2**0
                  CONTENTS, ALLOC, LOAD, DATA
  1 .text         0000095e  00000000  00000000  00000094  2**1
                  CONTENTS, ALLOC, LOAD, READONLY, CODE
  2 .bss          00000022  0080010c  0080010c  000009fe  2**0
                  ALLOC
  3 .comment      00000030  00000000  00000000  000009fe  2**0
                  CONTENTS, READONLY
  4 .debug_aranges 00000330  00000000  00000000  00000a2e  2**0
                  CONTENTS, READONLY, DEBUGGING
  5 .debug_info   000027ee  00000000  00000000  00000d5e  2**0
                  CONTENTS, READONLY, DEBUGGING
  6 .debug_abbrev 00000ef4  00000000  00000000  0000354c  2**0
                  CONTENTS, READONLY, DEBUGGING
  7 .debug_line   00001604  00000000  00000000  00004440  2**0
                  CONTENTS, READONLY, DEBUGGING
  8 .debug_frame  00000650  00000000  00000000  00005a44  2**2
                  CONTENTS, READONLY, DEBUGGING
  9 .debug_str    00000bea  00000000  00000000  00006094  2**0
                  CONTENTS, READONLY, DEBUGGING
 10 .debug_loc    00001550  00000000  00000000  00006c7e  2**0
                  CONTENTS, READONLY, DEBUGGING
 11 .debug_ranges 00000260  00000000  00000000  000081ce  2**0
                  CONTENTS, READONLY, DEBUGGING

Disassembly of section .text:

00000000 <__vectors>:
   0:	0c 94 34 00 	jmp	0x68	; 0x68 <__ctors_end>
   4:	0c 94 51 00 	jmp	0xa2	; 0xa2 <__bad_interrupt>
   8:	0c 94 51 00 	jmp	0xa2	; 0xa2 <__bad_interrupt>
   c:	0c 94 51 00 	jmp	0xa2	; 0xa2 <__bad_interrupt>
  10:	0c 94 51 00 	jmp	0xa2	; 0xa2 <__bad_interrupt>
  14:	0c 94 51 00 	jmp	0xa2	; 0xa2 <__bad_interrupt>
  18:	0c 94 51 00 	jmp	0xa2	; 0xa2 <__bad_interrupt>
  1c:	0c 94 51 00 	jmp	0xa2	; 0xa2 <__bad_interrupt>
  20:	0c 94 51 00 	jmp	0xa2	; 0xa2 <__bad_interrupt>
  24:	0c 94 51 00 	jmp	0xa2	; 0xa2 <__bad_interrupt>
  28:	0c 94 51 00 	jmp	0xa2	; 0xa2 <__bad_interrupt>
  2c:	0c 94 51 00 	jmp	0xa2	; 0xa2 <__bad_interrupt>
  30:	0c 94 51 00 	jmp	0xa2	; 0xa2 <__bad_interrupt>
  34:	0c 94 51 00 	jmp	0xa2	; 0xa2 <__bad_interrupt>
  38:	0c 94 51 00 	jmp	0xa2	; 0xa2 <__bad_interrupt>
  3c:	0c 94 51 00 	jmp	0xa2	; 0xa2 <__bad_interrupt>
  40:	0c 94 0b 03 	jmp	0x616	; 0x616 <__vector_16>
  44:	0c 94 51 00 	jmp	0xa2	; 0xa2 <__bad_interrupt>
  48:	0c 94 51 00 	jmp	0xa2	; 0xa2 <__bad_interrupt>
  4c:	0c 94 51 00 	jmp	0xa2	; 0xa2 <__bad_interrupt>
  50:	0c 94 51 00 	jmp	0xa2	; 0xa2 <__bad_interrupt>
  54:	0c 94 51 00 	jmp	0xa2	; 0xa2 <__bad_interrupt>
  58:	0c 94 51 00 	jmp	0xa2	; 0xa2 <__bad_interrupt>
  5c:	0c 94 51 00 	jmp	0xa2	; 0xa2 <__bad_interrupt>
  60:	0c 94 51 00 	jmp	0xa2	; 0xa2 <__bad_interrupt>
  64:	0c 94 51 00 	jmp	0xa2	; 0xa2 <__bad_interrupt>

00000068 <__ctors_end>:
  68:	11 24       	eor	r1, r1
  6a:	1f be       	out	0x3f, r1	; 63
  6c:	cf ef       	ldi	r28, 0xFF	; 255
  6e:	d8 e0       	ldi	r29, 0x08	; 8
  70:	de bf       	out	0x3e, r29	; 62
  72:	cd bf       	out	0x3d, r28	; 61

00000074 <__do_copy_data>:
  74:	11 e0       	ldi	r17, 0x01	; 1
  76:	a0 e0       	ldi	r26, 0x00	; 0
  78:	b1 e0       	ldi	r27, 0x01	; 1
  7a:	ee e5       	ldi	r30, 0x5E	; 94
  7c:	f9 e0       	ldi	r31, 0x09	; 9
  7e:	02 c0       	rjmp	.+4      	; 0x84 <__do_copy_data+0x10>
  80:	05 90       	lpm	r0, Z+
  82:	0d 92       	st	X+, r0
  84:	ac 30       	cpi	r26, 0x0C	; 12
  86:	b1 07       	cpc	r27, r17
  88:	d9 f7       	brne	.-10     	; 0x80 <__do_copy_data+0xc>

0000008a <__do_clear_bss>:
  8a:	21 e0       	ldi	r18, 0x01	; 1
  8c:	ac e0       	ldi	r26, 0x0C	; 12
  8e:	b1 e0       	ldi	r27, 0x01	; 1
  90:	01 c0       	rjmp	.+2      	; 0x94 <.do_clear_bss_start>

00000092 <.do_clear_bss_loop>:
  92:	1d 92       	st	X+, r1

00000094 <.do_clear_bss_start>:
  94:	ae 32       	cpi	r26, 0x2E	; 46
  96:	b2 07       	cpc	r27, r18
  98:	e1 f7       	brne	.-8      	; 0x92 <.do_clear_bss_loop>
  9a:	0e 94 c1 00 	call	0x182	; 0x182 <main>
  9e:	0c 94 ad 04 	jmp	0x95a	; 0x95a <_exit>

000000a2 <__bad_interrupt>:
  a2:	0c 94 00 00 	jmp	0	; 0x0 <__vectors>

000000a6 <_Z7pin_Dirhhc>:
		UCSR0C &= ~(1<<UPM00);
		UCSR0C |=  (1<<UPM01);
	}
	if(ParityMode == EVEN){
		UCSR0C |=  (1<<UPM00);
		UCSR0C |=  (1<<UPM01);
  a6:	41 30       	cpi	r20, 0x01	; 1
  a8:	61 f4       	brne	.+24     	; 0xc2 <_Z7pin_Dirhhc+0x1c>
  aa:	e8 2f       	mov	r30, r24
  ac:	f0 e0       	ldi	r31, 0x00	; 0
  ae:	81 81       	ldd	r24, Z+1	; 0x01
	}

	//set stop bits number
	if(StopBitsNumber == 1){
  b0:	21 e0       	ldi	r18, 0x01	; 1
  b2:	30 e0       	ldi	r19, 0x00	; 0
		UCSR0C &= ~(1 << USBS0);
  b4:	06 2e       	mov	r0, r22
  b6:	01 c0       	rjmp	.+2      	; 0xba <_Z7pin_Dirhhc+0x14>
  b8:	22 0f       	add	r18, r18
  ba:	0a 94       	dec	r0
	}
	if(StopBitsNumber == 2){
  bc:	ea f7       	brpl	.-6      	; 0xb8 <_Z7pin_Dirhhc+0x12>
  be:	82 2b       	or	r24, r18
		UCSR0C |= (1 << USBS0);
  c0:	0e c0       	rjmp	.+28     	; 0xde <_Z7pin_Dirhhc+0x38>
  c2:	41 11       	cpse	r20, r1
  c4:	0d c0       	rjmp	.+26     	; 0xe0 <_Z7pin_Dirhhc+0x3a>
  c6:	e8 2f       	mov	r30, r24
  c8:	f0 e0       	ldi	r31, 0x00	; 0
	}

	//load the baud rate on the UBRR register
	int baud_rate_prescaled = BAUD_PRESCALE(baudrate);
  ca:	81 81       	ldd	r24, Z+1	; 0x01
  cc:	21 e0       	ldi	r18, 0x01	; 1
  ce:	30 e0       	ldi	r19, 0x00	; 0
  d0:	06 2e       	mov	r0, r22
  d2:	01 c0       	rjmp	.+2      	; 0xd6 <_Z7pin_Dirhhc+0x30>
  d4:	22 0f       	add	r18, r18
  d6:	0a 94       	dec	r0
  d8:	ea f7       	brpl	.-6      	; 0xd4 <_Z7pin_Dirhhc+0x2e>
  da:	20 95       	com	r18
  dc:	82 23       	and	r24, r18
  de:	81 83       	std	Z+1, r24	; 0x01
  e0:	08 95       	ret

000000e2 <_Z6U_Inithhhh>:
  e2:	1f 93       	push	r17
  e4:	cf 93       	push	r28
  e6:	df 93       	push	r29
  e8:	1f 92       	push	r1
  ea:	cd b7       	in	r28, 0x3d	; 61
	UBRR0L = baud_rate_prescaled;
  ec:	de b7       	in	r29, 0x3e	; 62
  ee:	98 2f       	mov	r25, r24
	UBRR0H = (baud_rate_prescaled >> 8);
  f0:	86 2f       	mov	r24, r22
  f2:	14 2f       	mov	r17, r20

}
  f4:	41 e0       	ldi	r20, 0x01	; 1
  f6:	69 2f       	mov	r22, r25
	// In case of using a different sensor, passing its known range may be beneficial.
	//MAX_DISTANCE = max_distance;
	//MAX_TIMEOUT = (((MAX_DISTANCE/100)/171.5)*1000000)/0.05; // Use a correct formula to calculate the max timeout.

	// Set the direction of the specified pins/ports and save them into global variables.
	pin_Dir(triggerPORT, triggerPIN, 1);
  f8:	29 83       	std	Y+1, r18	; 0x01
  fa:	0e 94 53 00 	call	0xa6	; 0xa6 <_Z7pin_Dirhhc>
		//Type casting to pointer then dereference
		//Port+1 gives us the reg. right after the base reg. which has address "port"
		//now the pin is set to 1 which indicates to output
	}
	if(direction == input){
		CLEAR_BIT( (*((volatile unsigned char*)(port+1))), pin );
  fe:	29 81       	ldd	r18, Y+1	; 0x01
 100:	e2 2f       	mov	r30, r18
 102:	f0 e0       	ldi	r31, 0x00	; 0
 104:	21 81       	ldd	r18, Z+1	; 0x01
 106:	81 e0       	ldi	r24, 0x01	; 1
 108:	90 e0       	ldi	r25, 0x00	; 0
 10a:	01 c0       	rjmp	.+2      	; 0x10e <_Z6U_Inithhhh+0x2c>
 10c:	88 0f       	add	r24, r24
 10e:	1a 95       	dec	r17
 110:	ea f7       	brpl	.-6      	; 0x10c <_Z6U_Inithhhh+0x2a>
 112:	80 95       	com	r24
 114:	28 23       	and	r18, r24
 116:	21 83       	std	Z+1, r18	; 0x01
	// Use this part in case of using edge triggered external interrupts.
	// Be sure to use interrupt-capable pins.
	/* sei();
	EICRA |= (0 << ISC11) | (1 << ISC10); // enable interrupt on any(rising/dropping) edge
	EIMSK |= (1 << INT1);	// Turns on INT1 */
}
 118:	0f 90       	pop	r0
 11a:	df 91       	pop	r29
 11c:	cf 91       	pop	r28
 11e:	1f 91       	pop	r17
 120:	08 95       	ret

00000122 <_Z13SPI_initSlavev>:
	//SS(PB2)   --> Input
	//MOSI(PB3) --> Input
	//MISO(PB4) --> Output
	// SCK(PB5) --> Input

	DDRB = DDRB & (~(1<<PB2));
 122:	22 98       	cbi	0x04, 2	; 4
	DDRB = DDRB & (~(1<<PB3));
 124:	23 98       	cbi	0x04, 3	; 4
	DDRB = DDRB | (1<<PB4);
 126:	24 9a       	sbi	0x04, 4	; 4
	DDRB = DDRB & (~(1<<PB5));
 128:	25 98       	cbi	0x04, 5	; 4
		pin_Dir(B, 4, output);
		pin_Dir(B, 5,input);
*/

		// just enable SPI + choose SPI clock = Fosc/8
	    SPCR = (1<<SPE) ;
 12a:	80 e4       	ldi	r24, 0x40	; 64
 12c:	8c bd       	out	0x2c, r24	; 44
 12e:	08 95       	ret

00000130 <_Z15SPI_recieveCharv>:
	while(!(SPSR & (1<<SPIF))); //wait until SPI interrupt flag=1 (data is sent correctly)
}

char SPI_recieveChar(void)
{
	while(!(SPSR & (1<<SPIF))); //wait until SPI interrupt flag=1(data is receive correctly)
 130:	0d b4       	in	r0, 0x2d	; 45
 132:	07 fe       	sbrs	r0, 7
 134:	fd cf       	rjmp	.-6      	; 0x130 <_Z15SPI_recieveCharv>
   return SPDR; //return the received byte from SPI data register
 136:	8e b5       	in	r24, 0x2e	; 46
}
 138:	08 95       	ret

0000013a <loop>:

volatile unsigned char command;
void loop(void)
{
	//Command from the application denoting it's ready to receive data.
	command = SPI_recieveChar();
 13a:	0e 94 98 00 	call	0x130	; 0x130 <_Z15SPI_recieveCharv>
 13e:	80 93 0d 01 	sts	0x010D, r24

	ActivateTask(MeasureDistance);
 142:	80 e0       	ldi	r24, 0x00	; 0
 144:	0e 94 40 02 	call	0x480	; 0x480 <EE_fp_ActivateTask>
	ActivateTask(Send);			//will Preempt  MeasureDistance since it has higher priority
 148:	81 e0       	ldi	r24, 0x01	; 1
 14a:	0e 94 40 02 	call	0x480	; 0x480 <EE_fp_ActivateTask>
	command = 0;
 14e:	10 92 0d 01 	sts	0x010D, r1
 152:	08 95       	ret

00000154 <setup>:
	//PB2 >> Pin 10 (trig.)
	//PB3 >> Pin 11 (echo)
	//PD6 >> Pin 6	(trig.)
	//PD7 >> Pin 7 	(echo)

	U_Init(PB0, B, PB1, B);
 154:	23 e2       	ldi	r18, 0x23	; 35
 156:	41 e0       	ldi	r20, 0x01	; 1
 158:	63 e2       	ldi	r22, 0x23	; 35
 15a:	80 e0       	ldi	r24, 0x00	; 0
 15c:	0e 94 71 00 	call	0xe2	; 0xe2 <_Z6U_Inithhhh>
	U_Init(PD4, D, PD5, D);
 160:	29 e2       	ldi	r18, 0x29	; 41
 162:	45 e0       	ldi	r20, 0x05	; 5
 164:	69 e2       	ldi	r22, 0x29	; 41
 166:	84 e0       	ldi	r24, 0x04	; 4
 168:	0e 94 71 00 	call	0xe2	; 0xe2 <_Z6U_Inithhhh>
	U_Init(PD6, D, PD7, D);
 16c:	29 e2       	ldi	r18, 0x29	; 41
 16e:	47 e0       	ldi	r20, 0x07	; 7
 170:	69 e2       	ldi	r22, 0x29	; 41
 172:	86 e0       	ldi	r24, 0x06	; 6
 174:	0e 94 71 00 	call	0xe2	; 0xe2 <_Z6U_Inithhhh>

	SPI_initSlave();
 178:	0e 94 91 00 	call	0x122	; 0x122 <_Z13SPI_initSlavev>
	DDRD = DDRD | (1 << PD2);
 17c:	52 9a       	sbi	0x0a, 2	; 10
	PORTD = PORTD &~ (1 << PD2);
 17e:	5a 98       	cbi	0x0b, 2	; 11
 180:	08 95       	ret

00000182 <main>:
 *************************************************************************/

__INLINE__ void EE_mcu_init(void)
{
  /* Interrupt Vector Table Recall. */
  EE_atmega_intvect();
 182:	0e 94 7d 02 	call	0x4fa	; 0x4fa <EE_atmega_intvect>
/*
 * Enable interrupts
 */
__INLINE__ void __ALWAYS_INLINE__ EE_avr8_enableIRQ(void)
{
  sei();
 186:	78 94       	sei
/*-------------------------------------Main------------------------------------------*/
int main(void)
{
	EE_mcu_init();

	init();
 188:	0e 94 55 03 	call	0x6aa	; 0x6aa <init>

#if defined(USBCON)
	USBDevice.attach();
#endif
	
	setup();
 18c:	0e 94 aa 00 	call	0x154	; 0x154 <setup>

	for (;;) {
		loop();
		if (serialEventRun) serialEventRun();
 190:	c0 e0       	ldi	r28, 0x00	; 0
 192:	d0 e0       	ldi	r29, 0x00	; 0
#endif
	
	setup();

	for (;;) {
		loop();
 194:	0e 94 9d 00 	call	0x13a	; 0x13a <loop>
		if (serialEventRun) serialEventRun();
 198:	20 97       	sbiw	r28, 0x00	; 0
 19a:	e1 f3       	breq	.-8      	; 0x194 <main+0x12>
 19c:	0e 94 00 00 	call	0	; 0x0 <__vectors>
 1a0:	f9 cf       	rjmp	.-14     	; 0x194 <main+0x12>

000001a2 <pin_Write>:
	}
}

//Function that
void pin_Write(uint8_t port, uint8_t pin, uint8_t data){
	if(data == 1){
 1a2:	41 30       	cpi	r20, 0x01	; 1
 1a4:	61 f4       	brne	.+24     	; 0x1be <pin_Write+0x1c>
		SET_BIT( (*((volatile unsigned char*)(port+2))), pin );
 1a6:	e8 2f       	mov	r30, r24
 1a8:	f0 e0       	ldi	r31, 0x00	; 0
 1aa:	82 81       	ldd	r24, Z+2	; 0x02
 1ac:	21 e0       	ldi	r18, 0x01	; 1
 1ae:	30 e0       	ldi	r19, 0x00	; 0
 1b0:	06 2e       	mov	r0, r22
 1b2:	01 c0       	rjmp	.+2      	; 0x1b6 <pin_Write+0x14>
 1b4:	22 0f       	add	r18, r18
 1b6:	0a 94       	dec	r0
 1b8:	ea f7       	brpl	.-6      	; 0x1b4 <pin_Write+0x12>
 1ba:	82 2b       	or	r24, r18
 1bc:	0e c0       	rjmp	.+28     	; 0x1da <pin_Write+0x38>
		//set corresponding bit to "pin" in register PORTx to one (Setting the pin)
	}
	if(data == 0){
 1be:	41 11       	cpse	r20, r1
 1c0:	0d c0       	rjmp	.+26     	; 0x1dc <pin_Write+0x3a>
		CLEAR_BIT( (*((volatile unsigned char*)(port+2))), pin );
 1c2:	e8 2f       	mov	r30, r24
 1c4:	f0 e0       	ldi	r31, 0x00	; 0
 1c6:	82 81       	ldd	r24, Z+2	; 0x02
 1c8:	21 e0       	ldi	r18, 0x01	; 1
 1ca:	30 e0       	ldi	r19, 0x00	; 0
 1cc:	06 2e       	mov	r0, r22
 1ce:	01 c0       	rjmp	.+2      	; 0x1d2 <pin_Write+0x30>
 1d0:	22 0f       	add	r18, r18
 1d2:	0a 94       	dec	r0
 1d4:	ea f7       	brpl	.-6      	; 0x1d0 <pin_Write+0x2e>
 1d6:	20 95       	com	r18
 1d8:	82 23       	and	r24, r18
 1da:	82 83       	std	Z+2, r24	; 0x02
 1dc:	08 95       	ret

000001de <timer_start>:
// arguments: none
// return: void
void timer_start()
{
	// setup 16 bit timer & enable interrupts, timer increments to 65535 //and interrupts on overflow
	TCCR1A = 0X00;
 1de:	10 92 80 00 	sts	0x0080, r1
	TCCR1B = (0<<CS12)|(1<<CS11)|(0<CS10); // select internal clock with 1/8 prescaling
 1e2:	82 e0       	ldi	r24, 0x02	; 2
 1e4:	80 93 81 00 	sts	0x0081, r24
	TCNT1 = 0; // reset counter to zero
 1e8:	10 92 85 00 	sts	0x0085, r1
 1ec:	10 92 84 00 	sts	0x0084, r1
 1f0:	08 95       	ret

000001f2 <timer_stop>:
 * resets the counter timer. */
// arguments: none
// return: void
void timer_stop()
{
	TCCR1B = (0<<CS02)|(0<<CS01)|(0<<CS00); // stop timer
 1f2:	10 92 81 00 	sts	0x0081, r1
	TCNT1 = 0; // reset counter to zero
 1f6:	10 92 85 00 	sts	0x0085, r1
 1fa:	10 92 84 00 	sts	0x0084, r1
 1fe:	08 95       	ret

00000200 <U_TRIGGER>:

/* This function triggers the sensor and sends the ultrasonic pulses. */
// arguments: none
// return: void
void U_TRIGGER(uint8_t triggerPIN,uint8_t triggerPORT)
{
 200:	1f 93       	push	r17
 202:	cf 93       	push	r28
 204:	df 93       	push	r29
 206:	58 2f       	mov	r21, r24
 208:	86 2f       	mov	r24, r22
 20a:	c6 2f       	mov	r28, r22
 20c:	d0 e0       	ldi	r29, 0x00	; 0
 20e:	9a 81       	ldd	r25, Y+2	; 0x02
 210:	21 e0       	ldi	r18, 0x01	; 1
 212:	30 e0       	ldi	r19, 0x00	; 0
 214:	05 2e       	mov	r0, r21
 216:	01 c0       	rjmp	.+2      	; 0x21a <U_TRIGGER+0x1a>
 218:	22 0f       	add	r18, r18
 21a:	0a 94       	dec	r0
 21c:	ea f7       	brpl	.-6      	; 0x218 <U_TRIGGER+0x18>
 21e:	12 2f       	mov	r17, r18
 220:	10 95       	com	r17
 222:	91 23       	and	r25, r17
 224:	9a 83       	std	Y+2, r25	; 0x02
	#else
		//round up by default
		__ticks_dc = (uint32_t)(ceil(fabs(__tmp)));
	#endif

	__builtin_avr_delay_cycles(__ticks_dc);
 226:	9a e0       	ldi	r25, 0x0A	; 10
 228:	9a 95       	dec	r25
 22a:	f1 f7       	brne	.-4      	; 0x228 <U_TRIGGER+0x28>
 22c:	00 c0       	rjmp	.+0      	; 0x22e <U_TRIGGER+0x2e>
	/* running = 1;
	up = 0; */

	pin_Write(triggerPORT, triggerPIN, 0);	//Clear trigger pin
	_delay_us(2);					//Delaying for 2u seconds to make sure the Port  is ready.
	pin_Write(triggerPORT, triggerPIN, 1);	//Setting the pIn.
 22e:	41 e0       	ldi	r20, 0x01	; 1
 230:	65 2f       	mov	r22, r21
 232:	0e 94 d1 00 	call	0x1a2	; 0x1a2 <pin_Write>
 236:	85 e3       	ldi	r24, 0x35	; 53
 238:	8a 95       	dec	r24
 23a:	f1 f7       	brne	.-4      	; 0x238 <U_TRIGGER+0x38>
 23c:	00 00       	nop
 23e:	8a 81       	ldd	r24, Y+2	; 0x02
 240:	81 23       	and	r24, r17
 242:	8a 83       	std	Y+2, r24	; 0x02
	_delay_us(10);					//Delaying for 10u seconds for the second wave to be sent.
	pin_Write(triggerPORT, triggerPIN, 0);	//Then again Clear the Pin.
}
 244:	df 91       	pop	r29
 246:	cf 91       	pop	r28
 248:	1f 91       	pop	r17
 24a:	08 95       	ret

0000024c <U_GET_PULSEWIDTH>:

/* This function calculates the ECHO signal width and returns the duration. */
// arguments: none
// return: uint16_t
uint16_t U_GET_PULSEWIDTH(uint8_t echoPIN,uint8_t echoPORT)
{
 24c:	cf 92       	push	r12
 24e:	df 92       	push	r13
 250:	ef 92       	push	r14
 252:	ff 92       	push	r15
 254:	cf 93       	push	r28
 256:	df 93       	push	r29


uint8_t pin_State(uint8_t port,uint8_t pin){

	uint8_t state  = (*(volatile unsigned char*)port);
	uint8_t result =  state & (1 << pin);
 258:	91 e0       	ldi	r25, 0x01	; 1
 25a:	f9 2e       	mov	r15, r25
 25c:	01 c0       	rjmp	.+2      	; 0x260 <U_GET_PULSEWIDTH+0x14>
 25e:	ff 0c       	add	r15, r15
 260:	8a 95       	dec	r24
 262:	ea f7       	brpl	.-6      	; 0x25e <U_GET_PULSEWIDTH+0x12>
 264:	80 e8       	ldi	r24, 0x80	; 128
 266:	9d e8       	ldi	r25, 0x8D	; 141
 268:	ab e5       	ldi	r26, 0x5B	; 91
 26a:	b0 e0       	ldi	r27, 0x00	; 0
}


uint8_t pin_State(uint8_t port,uint8_t pin){

	uint8_t state  = (*(volatile unsigned char*)port);
 26c:	c6 2f       	mov	r28, r22
 26e:	d0 e0       	ldi	r29, 0x00	; 0
 270:	28 81       	ld	r18, Y
	uint8_t result =  state & (1 << pin);
 272:	2f 21       	and	r18, r15
	uint32_t i,result;

	//Wait for the rising edge
	for(i = 0; i < 6000000; i++)
	{
		if(!pin_State(echoPORT, echoPIN)) continue;
 274:	51 f4       	brne	.+20     	; 0x28a <U_GET_PULSEWIDTH+0x3e>
 276:	01 97       	sbiw	r24, 0x01	; 1
 278:	a1 09       	sbc	r26, r1
 27a:	b1 09       	sbc	r27, r1
uint16_t U_GET_PULSEWIDTH(uint8_t echoPIN,uint8_t echoPORT)
{
	uint32_t i,result;

	//Wait for the rising edge
	for(i = 0; i < 6000000; i++)
 27c:	00 97       	sbiw	r24, 0x00	; 0
 27e:	a1 05       	cpc	r26, r1
 280:	b1 05       	cpc	r27, r1
 282:	b1 f7       	brne	.-20     	; 0x270 <U_GET_PULSEWIDTH+0x24>
		if(!pin_State(echoPORT, echoPIN)) continue;
		else	break;
	}

	if(i == 6000000)
		return 0xffff; //Indicates time out
 284:	8f ef       	ldi	r24, 0xFF	; 255
 286:	9f ef       	ldi	r25, 0xFF	; 255
 288:	2f c0       	rjmp	.+94     	; 0x2e8 <U_GET_PULSEWIDTH+0x9c>

	//High Edge Found

	//Setup Timer1 to start counting
	timer_start();
 28a:	0e 94 ef 00 	call	0x1de	; 0x1de <timer_start>
 28e:	80 e8       	ldi	r24, 0x80	; 128
 290:	9d e8       	ldi	r25, 0x8D	; 141
 292:	ab e5       	ldi	r26, 0x5B	; 91
 294:	b0 e0       	ldi	r27, 0x00	; 0
}


uint8_t pin_State(uint8_t port,uint8_t pin){

	uint8_t state  = (*(volatile unsigned char*)port);
 296:	28 81       	ld	r18, Y
	uint8_t result =  state & (1 << pin);
 298:	2f 21       	and	r18, r15

	//Now wait for the falling edge
	for(i = 0; i < 6000000; i++)
	{
		if(pin_State(echoPORT, echoPIN))
 29a:	79 f0       	breq	.+30     	; 0x2ba <U_GET_PULSEWIDTH+0x6e>
/* This function returns the value of the counter at the time it is called. */
// arguments: none
// return: uint16_t
uint16_t get_counter()
{
	return TCNT1;
 29c:	20 91 84 00 	lds	r18, 0x0084
 2a0:	30 91 85 00 	lds	r19, 0x0085
		{
			if(get_counter() > 60000) break;
 2a4:	21 36       	cpi	r18, 0x61	; 97
 2a6:	3a 4e       	sbci	r19, 0xEA	; 234
 2a8:	40 f4       	brcc	.+16     	; 0x2ba <U_GET_PULSEWIDTH+0x6e>
 2aa:	01 97       	sbiw	r24, 0x01	; 1
 2ac:	a1 09       	sbc	r26, r1
 2ae:	b1 09       	sbc	r27, r1

	//Setup Timer1 to start counting
	timer_start();

	//Now wait for the falling edge
	for(i = 0; i < 6000000; i++)
 2b0:	00 97       	sbiw	r24, 0x00	; 0
 2b2:	a1 05       	cpc	r26, r1
 2b4:	b1 05       	cpc	r27, r1
 2b6:	79 f7       	brne	.-34     	; 0x296 <U_GET_PULSEWIDTH+0x4a>
 2b8:	e5 cf       	rjmp	.-54     	; 0x284 <U_GET_PULSEWIDTH+0x38>
 2ba:	c0 90 84 00 	lds	r12, 0x0084
 2be:	d0 90 85 00 	lds	r13, 0x0085

	if(i == 6000000)
		return 0xffff; //Indicates time out

	//Falling edge found
	result = get_counter();
 2c2:	e1 2c       	mov	r14, r1
 2c4:	f1 2c       	mov	r15, r1

	//Stop Timer
	timer_stop();
 2c6:	0e 94 f9 00 	call	0x1f2	; 0x1f2 <timer_stop>

	if(result > 60000)
 2ca:	81 e6       	ldi	r24, 0x61	; 97
 2cc:	c8 16       	cp	r12, r24
 2ce:	8a ee       	ldi	r24, 0xEA	; 234
 2d0:	d8 06       	cpc	r13, r24
 2d2:	e1 04       	cpc	r14, r1
 2d4:	f1 04       	cpc	r15, r1
 2d6:	30 f4       	brcc	.+12     	; 0x2e4 <U_GET_PULSEWIDTH+0x98>
		return 0xfffe; //No obstacle
	else
		return (result >> 1);
 2d8:	f6 94       	lsr	r15
 2da:	e7 94       	ror	r14
 2dc:	d7 94       	ror	r13
 2de:	c7 94       	ror	r12
 2e0:	c6 01       	movw	r24, r12
 2e2:	02 c0       	rjmp	.+4      	; 0x2e8 <U_GET_PULSEWIDTH+0x9c>

	//Stop Timer
	timer_stop();

	if(result > 60000)
		return 0xfffe; //No obstacle
 2e4:	8e ef       	ldi	r24, 0xFE	; 254
 2e6:	9f ef       	ldi	r25, 0xFF	; 255
	else
		return (result >> 1);
}
 2e8:	df 91       	pop	r29
 2ea:	cf 91       	pop	r28
 2ec:	ff 90       	pop	r15
 2ee:	ef 90       	pop	r14
 2f0:	df 90       	pop	r13
 2f2:	cf 90       	pop	r12
 2f4:	08 95       	ret

000002f6 <U_GET_DISTANCE>:
 * the distance of the obstacle detected by the sensor. */
// arguments: uint16_t - duration
// return: uint16_t
uint16_t U_GET_DISTANCE(uint16_t duration)
{
	distance = ((duration * 0.0343) / 2);
 2f6:	bc 01       	movw	r22, r24
 2f8:	80 e0       	ldi	r24, 0x00	; 0
 2fa:	90 e0       	ldi	r25, 0x00	; 0
 2fc:	0e 94 bc 03 	call	0x778	; 0x778 <__floatunsisf>
 300:	28 e2       	ldi	r18, 0x28	; 40
 302:	3e e7       	ldi	r19, 0x7E	; 126
 304:	4c e0       	ldi	r20, 0x0C	; 12
 306:	5d e3       	ldi	r21, 0x3D	; 61
 308:	0e 94 22 04 	call	0x844	; 0x844 <__mulsf3>
 30c:	20 e0       	ldi	r18, 0x00	; 0
 30e:	30 e0       	ldi	r19, 0x00	; 0
 310:	40 e0       	ldi	r20, 0x00	; 0
 312:	5f e3       	ldi	r21, 0x3F	; 63
 314:	0e 94 22 04 	call	0x844	; 0x844 <__mulsf3>
 318:	0e 94 90 03 	call	0x720	; 0x720 <__fixunssfsi>
 31c:	70 93 0f 01 	sts	0x010F, r23
 320:	60 93 0e 01 	sts	0x010E, r22
	return distance;
 324:	80 91 0e 01 	lds	r24, 0x010E
 328:	90 91 0f 01 	lds	r25, 0x010F
}
 32c:	08 95       	ret

0000032e <FuncMeasureDistance>:
//Function Prototype
//uint16_t getPulseWidth();

TASK(MeasureDistance){

	if(command == 'P')
 32e:	80 91 0d 01 	lds	r24, 0x010D
 332:	80 35       	cpi	r24, 0x50	; 80
 334:	09 f0       	breq	.+2      	; 0x338 <FuncMeasureDistance+0xa>
 336:	74 c0       	rjmp	.+232    	; 0x420 <FuncMeasureDistance+0xf2>
	{
		//=====Getting the reading from the first Sensor=====.
			//Function That trigger the sensor and sends the ultrasonic pulses.
			U_TRIGGER(PB0, B);
 338:	63 e2       	ldi	r22, 0x23	; 35
 33a:	80 e0       	ldi	r24, 0x00	; 0
 33c:	0e 94 00 01 	call	0x200	; 0x200 <U_TRIGGER>
			//Calculating distance.
			duration = U_GET_PULSEWIDTH(PB1, B);
 340:	63 e2       	ldi	r22, 0x23	; 35
 342:	81 e0       	ldi	r24, 0x01	; 1
 344:	0e 94 26 01 	call	0x24c	; 0x24c <U_GET_PULSEWIDTH>
 348:	90 93 21 01 	sts	0x0121, r25
 34c:	80 93 20 01 	sts	0x0120, r24
			disToObject[0] = U_GET_DISTANCE(duration);
 350:	0e 94 7b 01 	call	0x2f6	; 0x2f6 <U_GET_DISTANCE>
 354:	80 93 1c 01 	sts	0x011C, r24
			//We now have the measured the distance.
		if(disToObject[0]  > 30){
 358:	8f 31       	cpi	r24, 0x1F	; 31
 35a:	10 f0       	brcs	.+4      	; 0x360 <FuncMeasureDistance+0x32>
			Send_Data[0] = '0';
 35c:	80 e3       	ldi	r24, 0x30	; 48
 35e:	0c c0       	rjmp	.+24     	; 0x378 <FuncMeasureDistance+0x4a>
			Send_Data[1] = ',';
			sensor1 = '0';
		}
		else if(disToObject[0]  <= 30 && disToObject[0]  > 20){
 360:	9b ee       	ldi	r25, 0xEB	; 235
 362:	98 0f       	add	r25, r24
 364:	9a 30       	cpi	r25, 0x0A	; 10
 366:	10 f4       	brcc	.+4      	; 0x36c <FuncMeasureDistance+0x3e>
			Send_Data[0] = '1';
 368:	81 e3       	ldi	r24, 0x31	; 49
 36a:	06 c0       	rjmp	.+12     	; 0x378 <FuncMeasureDistance+0x4a>
			Send_Data[1] = ',';
			sensor1 = '1';
		}
		else if(disToObject[0]  <= 20 && disToObject[0]  > 10){
 36c:	8b 50       	subi	r24, 0x0B	; 11
 36e:	8a 30       	cpi	r24, 0x0A	; 10
 370:	10 f4       	brcc	.+4      	; 0x376 <FuncMeasureDistance+0x48>
			Send_Data[0] = '2';
 372:	82 e3       	ldi	r24, 0x32	; 50
 374:	01 c0       	rjmp	.+2      	; 0x378 <FuncMeasureDistance+0x4a>
			Send_Data[1] = ',';
			sensor1 = '2';
		}
		else if(disToObject[0]  <= 10){
			Send_Data[0] = '3';
 376:	83 e3       	ldi	r24, 0x33	; 51
 378:	80 93 24 01 	sts	0x0124, r24
			Send_Data[1] = ',';
 37c:	9c e2       	ldi	r25, 0x2C	; 44
 37e:	90 93 25 01 	sts	0x0125, r25
			sensor1 = '3';
 382:	80 93 22 01 	sts	0x0122, r24
			Send_Data[1] = ',';
			sensor1 = 'z';
		}

		//=====Getting the Reading of the second Sensor=====
		U_TRIGGER(PD4, D);
 386:	69 e2       	ldi	r22, 0x29	; 41
 388:	84 e0       	ldi	r24, 0x04	; 4
 38a:	0e 94 00 01 	call	0x200	; 0x200 <U_TRIGGER>

		duration 	= U_GET_PULSEWIDTH(PD5, D);
 38e:	69 e2       	ldi	r22, 0x29	; 41
 390:	85 e0       	ldi	r24, 0x05	; 5
 392:	0e 94 26 01 	call	0x24c	; 0x24c <U_GET_PULSEWIDTH>
 396:	90 93 21 01 	sts	0x0121, r25
 39a:	80 93 20 01 	sts	0x0120, r24
		disToObject[1] = U_GET_DISTANCE(duration);
 39e:	0e 94 7b 01 	call	0x2f6	; 0x2f6 <U_GET_DISTANCE>
 3a2:	80 93 1d 01 	sts	0x011D, r24

		if(disToObject[1] > 30){
 3a6:	8f 31       	cpi	r24, 0x1F	; 31
 3a8:	10 f0       	brcs	.+4      	; 0x3ae <FuncMeasureDistance+0x80>
				Send_Data[2] = '0';
 3aa:	80 e3       	ldi	r24, 0x30	; 48
 3ac:	0c c0       	rjmp	.+24     	; 0x3c6 <FuncMeasureDistance+0x98>
				Send_Data[3] = ',';
				sensor2 = '0';
			}
			else if(disToObject[1]  <= 30 && disToObject[1]  > 20){
 3ae:	9b ee       	ldi	r25, 0xEB	; 235
 3b0:	98 0f       	add	r25, r24
 3b2:	9a 30       	cpi	r25, 0x0A	; 10
 3b4:	10 f4       	brcc	.+4      	; 0x3ba <FuncMeasureDistance+0x8c>
				Send_Data[2] = '1';
 3b6:	81 e3       	ldi	r24, 0x31	; 49
 3b8:	06 c0       	rjmp	.+12     	; 0x3c6 <FuncMeasureDistance+0x98>
				Send_Data[3] = ',';
				sensor2 = '1';
			}
			else if(disToObject[1]  <= 20 && disToObject[1]  > 10){
 3ba:	8b 50       	subi	r24, 0x0B	; 11
 3bc:	8a 30       	cpi	r24, 0x0A	; 10
 3be:	10 f4       	brcc	.+4      	; 0x3c4 <FuncMeasureDistance+0x96>
				Send_Data[2] = '2';
 3c0:	82 e3       	ldi	r24, 0x32	; 50
 3c2:	01 c0       	rjmp	.+2      	; 0x3c6 <FuncMeasureDistance+0x98>
				Send_Data[3] = ',';
				sensor2 = '2';
			}
			else if(disToObject[1]  <= 10){
				Send_Data[2] = '3';
 3c4:	83 e3       	ldi	r24, 0x33	; 51
 3c6:	80 93 26 01 	sts	0x0126, r24
				Send_Data[3] = ',';
 3ca:	9c e2       	ldi	r25, 0x2C	; 44
 3cc:	90 93 27 01 	sts	0x0127, r25
				sensor2 = '3';
 3d0:	80 93 23 01 	sts	0x0123, r24
				Send_Data[3] = ',';
				sensor2 = 'z';
			}

		//=====Getting the Reading of the third Sensor=====
		U_TRIGGER(PD6, D);
 3d4:	69 e2       	ldi	r22, 0x29	; 41
 3d6:	86 e0       	ldi	r24, 0x06	; 6
 3d8:	0e 94 00 01 	call	0x200	; 0x200 <U_TRIGGER>

			duration 	= U_GET_PULSEWIDTH(PD7, D);
 3dc:	69 e2       	ldi	r22, 0x29	; 41
 3de:	87 e0       	ldi	r24, 0x07	; 7
 3e0:	0e 94 26 01 	call	0x24c	; 0x24c <U_GET_PULSEWIDTH>
 3e4:	90 93 21 01 	sts	0x0121, r25
 3e8:	80 93 20 01 	sts	0x0120, r24
			disToObject[2] = U_GET_DISTANCE(duration);
 3ec:	0e 94 7b 01 	call	0x2f6	; 0x2f6 <U_GET_DISTANCE>
 3f0:	80 93 1e 01 	sts	0x011E, r24

			if(disToObject[2]  > 30){
 3f4:	8f 31       	cpi	r24, 0x1F	; 31
 3f6:	10 f0       	brcs	.+4      	; 0x3fc <FuncMeasureDistance+0xce>
					Send_Data[4] = '0';
 3f8:	80 e3       	ldi	r24, 0x30	; 48
 3fa:	0c c0       	rjmp	.+24     	; 0x414 <FuncMeasureDistance+0xe6>
					Send_Data[5] = '\0';
					sensor3 = '0';
				}
				else if(disToObject[2]  <= 30 && disToObject[2]  > 20){
 3fc:	9b ee       	ldi	r25, 0xEB	; 235
 3fe:	98 0f       	add	r25, r24
 400:	9a 30       	cpi	r25, 0x0A	; 10
 402:	10 f4       	brcc	.+4      	; 0x408 <FuncMeasureDistance+0xda>
					Send_Data[4] = '1';
 404:	81 e3       	ldi	r24, 0x31	; 49
 406:	06 c0       	rjmp	.+12     	; 0x414 <FuncMeasureDistance+0xe6>
					Send_Data[5] = '\0';
					sensor3 = '1';
				}
				else if(disToObject[2]  <= 20 && disToObject[2]  > 10){
 408:	8b 50       	subi	r24, 0x0B	; 11
 40a:	8a 30       	cpi	r24, 0x0A	; 10
 40c:	10 f4       	brcc	.+4      	; 0x412 <FuncMeasureDistance+0xe4>
					Send_Data[4] = '2';
 40e:	82 e3       	ldi	r24, 0x32	; 50
 410:	01 c0       	rjmp	.+2      	; 0x414 <FuncMeasureDistance+0xe6>
					Send_Data[5] = '\0';
					sensor3 = '2';
				}
				else if(disToObject[2]  <= 10){
					Send_Data[4] = '3';
 412:	83 e3       	ldi	r24, 0x33	; 51
 414:	80 93 28 01 	sts	0x0128, r24
					Send_Data[5] = '\0';
 418:	10 92 29 01 	sts	0x0129, r1
					sensor3 = '3';
 41c:	80 93 1f 01 	sts	0x011F, r24
 420:	08 95       	ret

00000422 <SPI_sendChar>:
   return SPDR; //return the received byte from SPI data register
}

void SPI_sendChar(const char data)
{
	SPDR = data; //send data by SPI
 422:	8e bd       	out	0x2e, r24	; 46
	while(!(SPSR & (1<<SPIF))); //wait until SPI interrupt flag=1 (data is sent correctly)
 424:	0d b4       	in	r0, 0x2d	; 45
 426:	07 fe       	sbrs	r0, 7
 428:	fd cf       	rjmp	.-6      	; 0x424 <SPI_sendChar+0x2>
}
 42a:	08 95       	ret

0000042c <FuncSend>:
extern volatile char command;

unsigned char test_data[2];

TASK(Send){
	test_data[0] = 'X';
 42c:	88 e5       	ldi	r24, 0x58	; 88
 42e:	80 93 2a 01 	sts	0x012A, r24
	test_data[1] = '\0';
 432:	10 92 2b 01 	sts	0x012B, r1
	/*test_data[2] = 'Y';
	test_data[3] = ',';
	test_data[4] = 'Z';
	test_data[5] = '\0';*/

	if (command == 'P')
 436:	80 91 0d 01 	lds	r24, 0x010D
 43a:	80 35       	cpi	r24, 0x50	; 80
 43c:	01 f5       	brne	.+64     	; 0x47e <FuncSend+0x52>
	#else
		//round up by default
		__ticks_dc = (uint32_t)(ceil(fabs(__tmp)));
	#endif

	__builtin_avr_delay_cycles(__ticks_dc);
 43e:	8f ec       	ldi	r24, 0xCF	; 207
 440:	97 e0       	ldi	r25, 0x07	; 7
 442:	01 97       	sbiw	r24, 0x01	; 1
 444:	f1 f7       	brne	.-4      	; 0x442 <FuncSend+0x16>
 446:	00 c0       	rjmp	.+0      	; 0x448 <FuncSend+0x1c>
 448:	00 00       	nop
	{
		_delay_ms(1);
		PORTD = PORTD | (1 << PD2);
 44a:	5a 9a       	sbi	0x0b, 2	; 11
		//SPI_SendString(test_data);
		SPI_sendChar('<');
 44c:	8c e3       	ldi	r24, 0x3C	; 60
 44e:	0e 94 11 02 	call	0x422	; 0x422 <SPI_sendChar>
		SPI_sendChar(sensor1);
 452:	80 91 22 01 	lds	r24, 0x0122
 456:	0e 94 11 02 	call	0x422	; 0x422 <SPI_sendChar>
		SPI_sendChar(sensor2);
 45a:	80 91 23 01 	lds	r24, 0x0123
 45e:	0e 94 11 02 	call	0x422	; 0x422 <SPI_sendChar>
		SPI_sendChar(sensor3);
 462:	80 91 1f 01 	lds	r24, 0x011F
 466:	0e 94 11 02 	call	0x422	; 0x422 <SPI_sendChar>
		/*SPI_sendChar('X');
		SPI_sendChar('Y');
		SPI_sendChar('Z');*/
		SPI_sendChar('>');
 46a:	8e e3       	ldi	r24, 0x3E	; 62
 46c:	0e 94 11 02 	call	0x422	; 0x422 <SPI_sendChar>
 470:	8f ec       	ldi	r24, 0xCF	; 207
 472:	97 e0       	ldi	r25, 0x07	; 7
 474:	01 97       	sbiw	r24, 0x01	; 1
 476:	f1 f7       	brne	.-4      	; 0x474 <FuncSend+0x48>
 478:	00 c0       	rjmp	.+0      	; 0x47a <FuncSend+0x4e>
 47a:	00 00       	nop

		_delay_ms(1);
		PORTD = PORTD &~ (1 << PD2);
 47c:	5a 98       	cbi	0x0b, 2	; 11
 47e:	08 95       	ret

00000480 <EE_fp_ActivateTask>:
#include "../inc/ee_kernel.h"

#ifndef __PRIVATE_ACTIVATETASK__

void EE_fp_ActivateTask(TaskType t)
{
 480:	1f 93       	push	r17
 482:	cf 93       	push	r28
 484:	df 93       	push	r29
/*
 * Supend interrupts
 */
__INLINE__ EE_FREG __ALWAYS_INLINE__ EE_avr8_suspendIRQ()
{
  register EE_FREG sr = SREG;
 486:	1f b7       	in	r17, 0x3f	; 63
/*
 * Disable interrupts
 */
__INLINE__ void __ALWAYS_INLINE__ EE_avr8_disableIRQ(void)
{
  cli();
 488:	f8 94       	cli
#endif
    
    flag = EE_hal_begin_nested_primitive();
    
    /* check for first activation */
    if (EE_th_nact[t] == (EE_UREG)0U) {
 48a:	c8 2f       	mov	r28, r24
 48c:	dd 27       	eor	r29, r29
 48e:	c7 fd       	sbrc	r28, 7
 490:	d0 95       	com	r29
 492:	c6 5e       	subi	r28, 0xE6	; 230
 494:	de 4f       	sbci	r29, 0xFE	; 254
 496:	98 81       	ld	r25, Y
 498:	91 11       	cpse	r25, r1
 49a:	02 c0       	rjmp	.+4      	; 0x4a0 <EE_fp_ActivateTask+0x20>
#if defined(__MULTI__) || defined(__WITH_STATUS__)
      EE_th_status[t] = EE_READY;
#endif
      EE_rq_insert(t);
 49c:	0e 94 a2 02 	call	0x544	; 0x544 <EE_rq_insert>
    }
    
    /* activate the task avoiding the counter wraparound */
    if (EE_th_nact[t] != EE_MAX_NACT) {
 4a0:	88 81       	ld	r24, Y
 4a2:	8f 3f       	cpi	r24, 0xFF	; 255
 4a4:	11 f0       	breq	.+4      	; 0x4aa <EE_fp_ActivateTask+0x2a>
      EE_th_nact[t] ++;
 4a6:	8f 5f       	subi	r24, 0xFF	; 255
 4a8:	88 83       	st	Y, r24
    }
    
    /* check for preemption */
    if (EE_hal_get_IRQ_nesting_level() == 0U) {
 4aa:	80 91 2c 01 	lds	r24, 0x012C
 4ae:	88 23       	and	r24, r24
 4b0:	29 f0       	breq	.+10     	; 0x4bc <EE_fp_ActivateTask+0x3c>
 * Resume interrupts
 */
__INLINE__ void __ALWAYS_INLINE__ EE_avr8_resumeIRQ(EE_FREG sr)
{
  EE_barrier();
  SREG = sr;
 4b2:	1f bf       	out	0x3f, r17	; 63
    EE_hal_end_nested_primitive(flag);
    
#ifdef __RN_TASK__
  }
#endif
}
 4b4:	df 91       	pop	r29
 4b6:	cf 91       	pop	r28
 4b8:	1f 91       	pop	r17
 4ba:	08 95       	ret

/* return the first ready task without extracting it */
#ifndef __PRIVATE_RQ_QUERYFIRST__
__INLINE__ EE_TID __ALWAYS_INLINE__ EE_rq_queryfirst(void)
{
    return EE_rqfirst;  
 4bc:	80 91 00 01 	lds	r24, 0x0100
    }
    
    /* check for preemption */
    if (EE_hal_get_IRQ_nesting_level() == 0U) {
      tmp = EE_rq_queryfirst();
      if (tmp != EE_NIL) {
 4c0:	8f 3f       	cpi	r24, 0xFF	; 255
 4c2:	b9 f3       	breq	.-18     	; 0x4b2 <EE_fp_ActivateTask+0x32>
	if (EE_sys_ceiling < EE_th_ready_prio[tmp]) {
 4c4:	20 91 0c 01 	lds	r18, 0x010C
 4c8:	99 27       	eor	r25, r25
 4ca:	87 fd       	sbrc	r24, 7
 4cc:	90 95       	com	r25
 4ce:	fc 01       	movw	r30, r24
 4d0:	ea 5f       	subi	r30, 0xFA	; 250
 4d2:	fe 4f       	sbci	r31, 0xFE	; 254
 4d4:	30 81       	ld	r19, Z
 4d6:	23 17       	cp	r18, r19
 4d8:	60 f7       	brcc	.-40     	; 0x4b2 <EE_fp_ActivateTask+0x32>
	  
#if defined(__MULTI__) || defined(__WITH_STATUS__)
	  EE_th_status[tmp] = EE_STACKED;
#endif
	  
	  EE_sys_ceiling |= EE_th_dispatch_prio[tmp];
 4da:	fc 01       	movw	r30, r24
 4dc:	ec 5f       	subi	r30, 0xFC	; 252
 4de:	fe 4f       	sbci	r31, 0xFE	; 254
 4e0:	80 81       	ld	r24, Z
 4e2:	82 2b       	or	r24, r18
 4e4:	80 93 0c 01 	sts	0x010C, r24
	  if (wasstacked)
	    EE_hal_stkchange(EE_rq2stk_exchange());
	  else
	    EE_hal_ready2stacked(EE_rq2stk_exchange());
#else
	  EE_hal_ready2stacked(EE_rq2stk_exchange());
 4e8:	0e 94 91 02 	call	0x522	; 0x522 <EE_rq2stk_exchange>
#define EE_std_need_context_change(tid) ((tid) >= 0)

__INLINE__ void __ALWAYS_INLINE__ EE_std_change_context(EE_TID tid)
{
    do {
        tid = EE_std_run_task_code(tid);
 4ec:	0e 94 7f 02 	call	0x4fe	; 0x4fe <EE_std_run_task_code>
    } while (EE_std_need_context_change(tid));
 4f0:	87 ff       	sbrs	r24, 7
 4f2:	fc cf       	rjmp	.-8      	; 0x4ec <EE_fp_ActivateTask+0x6c>
 4f4:	de cf       	rjmp	.-68     	; 0x4b2 <EE_fp_ActivateTask+0x32>

000004f6 <DUMMY_vect>:
#include "cpu/avr8/inc/ee_avr8_irqstub.h"

/* Erika Interrupt Vector Definition */

/* DUMMY interrupt vector */
EE_AVR8_ISR_NOT_DEFINED(DUMMY_vect)
 4f6:	f8 94       	cli
 4f8:	ff cf       	rjmp	.-2      	; 0x4f8 <DUMMY_vect+0x2>

000004fa <EE_atmega_intvect>:

/* Interrupt Vector Table Recall. */
void EE_atmega_intvect(void) {
  EE_AVR8_REQUEST_IRQ_ENTRY(DUMMY_vect);
 4fa:	e6 ef       	ldi	r30, 0xF6	; 246
 4fc:	08 95       	ret

000004fe <EE_std_run_task_code>:
/*
 * Enable interrupts
 */
__INLINE__ void __ALWAYS_INLINE__ EE_avr8_enableIRQ(void)
{
  sei();
 4fe:	78 94       	sei
 defined(__OO_ECC1__) || defined(__OO_ECC2__)
    EE_oo_thread_stub();
    (void)tid;
#else
    /* Useless check to make MISRA-C happy. */
    if ( EE_hal_thread_body[tid] != 0 ) {
 500:	e8 2f       	mov	r30, r24
 502:	ee 0f       	add	r30, r30
 504:	ff 0b       	sbc	r31, r31
 506:	e8 5f       	subi	r30, 0xF8	; 248
 508:	fe 4f       	sbci	r31, 0xFE	; 254
 50a:	01 90       	ld	r0, Z+
 50c:	f0 81       	ld	r31, Z
 50e:	e0 2d       	mov	r30, r0
 510:	30 97       	sbiw	r30, 0x00	; 0
 512:	09 f0       	breq	.+2      	; 0x516 <EE_std_run_task_code+0x18>
        EE_hal_thread_body[tid]();
 514:	09 95       	icall
/*
 * Disable interrupts
 */
__INLINE__ void __ALWAYS_INLINE__ EE_avr8_disableIRQ(void)
{
  cli();
 516:	f8 94       	cli
    }
#endif
    EE_hal_disableIRQ();
    EE_thread_end_instance(); /* Call the scheduler */
 518:	0e 94 cf 02 	call	0x59e	; 0x59e <EE_thread_end_instance>
    return EE_std_endcycle_next_tid;
}
 51c:	80 91 2d 01 	lds	r24, 0x012D
 520:	08 95       	ret

00000522 <EE_rq2stk_exchange>:
#ifndef __PRIVATE_RQ2STK_EXCHANGE__
EE_TID EE_rq2stk_exchange(void)
{
  EE_TID temp;

  temp = EE_rqfirst;
 522:	80 91 00 01 	lds	r24, 0x0100
  
  /* extract the first task from the ready queue */
  EE_rqfirst = EE_th_next[temp]; 
 526:	e8 2f       	mov	r30, r24
 528:	ff 27       	eor	r31, r31
 52a:	e7 fd       	sbrc	r30, 7
 52c:	f0 95       	com	r31
 52e:	ee 5f       	subi	r30, 0xFE	; 254
 530:	fe 4f       	sbci	r31, 0xFE	; 254
 532:	90 81       	ld	r25, Z
 534:	90 93 00 01 	sts	0x0100, r25
  /* insert the extracted task on the topo of the stack */
  EE_th_next[temp] = EE_stkfirst;
 538:	90 91 01 01 	lds	r25, 0x0101
 53c:	90 83       	st	Z, r25
  EE_stkfirst = temp;
 53e:	80 93 01 01 	sts	0x0101, r24

  return temp;
}
 542:	08 95       	ret

00000544 <EE_rq_insert>:
{
  EE_TYPEPRIO prio;
  EE_TID p,q;

  p = EE_NIL;
  q = EE_rqfirst;
 544:	90 91 00 01 	lds	r25, 0x0100
  prio = EE_th_ready_prio[t];
 548:	28 2f       	mov	r18, r24
 54a:	33 27       	eor	r19, r19
 54c:	27 fd       	sbrc	r18, 7
 54e:	30 95       	com	r19
 550:	f9 01       	movw	r30, r18
 552:	ea 5f       	subi	r30, 0xFA	; 250
 554:	fe 4f       	sbci	r31, 0xFE	; 254
 556:	70 81       	ld	r23, Z
void EE_rq_insert(EE_TID t)
{
  EE_TYPEPRIO prio;
  EE_TID p,q;

  p = EE_NIL;
 558:	ef ef       	ldi	r30, 0xFF	; 255
  q = EE_rqfirst;
  prio = EE_th_ready_prio[t];

  while ((q != EE_NIL) && (prio <= EE_th_ready_prio[q])) {
 55a:	9f 3f       	cpi	r25, 0xFF	; 255
 55c:	81 f0       	breq	.+32     	; 0x57e <EE_rq_insert+0x3a>
 55e:	49 2f       	mov	r20, r25
 560:	55 27       	eor	r21, r21
 562:	47 fd       	sbrc	r20, 7
 564:	50 95       	com	r21
 566:	da 01       	movw	r26, r20
 568:	aa 5f       	subi	r26, 0xFA	; 250
 56a:	be 4f       	sbci	r27, 0xFE	; 254
 56c:	6c 91       	ld	r22, X
 56e:	67 17       	cp	r22, r23
 570:	30 f0       	brcs	.+12     	; 0x57e <EE_rq_insert+0x3a>
    p = q;
    q = EE_th_next[q];
 572:	da 01       	movw	r26, r20
 574:	ae 5f       	subi	r26, 0xFE	; 254
 576:	be 4f       	sbci	r27, 0xFE	; 254
 578:	e9 2f       	mov	r30, r25
 57a:	9c 91       	ld	r25, X
 57c:	ee cf       	rjmp	.-36     	; 0x55a <EE_rq_insert+0x16>
  }

  if (p != EE_NIL) {
 57e:	ef 3f       	cpi	r30, 0xFF	; 255
 580:	39 f0       	breq	.+14     	; 0x590 <EE_rq_insert+0x4c>
    EE_th_next[p] = t;
 582:	ff 27       	eor	r31, r31
 584:	e7 fd       	sbrc	r30, 7
 586:	f0 95       	com	r31
 588:	ee 5f       	subi	r30, 0xFE	; 254
 58a:	fe 4f       	sbci	r31, 0xFE	; 254
 58c:	80 83       	st	Z, r24
 58e:	02 c0       	rjmp	.+4      	; 0x594 <EE_rq_insert+0x50>
  } else {
    EE_rqfirst = t;
 590:	80 93 00 01 	sts	0x0100, r24
  }

  EE_th_next[t] = q;
 594:	f9 01       	movw	r30, r18
 596:	ee 5f       	subi	r30, 0xFE	; 254
 598:	fe 4f       	sbci	r31, 0xFE	; 254
 59a:	90 83       	st	Z, r25
 59c:	08 95       	ret

0000059e <EE_thread_end_instance>:

/* return the first stacked task (the running task) without extracting it */
#ifndef __PRIVATE_STK_QUERYFIRST__
__INLINE__ EE_TID __ALWAYS_INLINE__ EE_stk_queryfirst(void)
{
    return EE_stkfirst;  
 59e:	80 91 01 01 	lds	r24, 0x0101
  EE_TID current;
  
  current = EE_stk_queryfirst();
  
  /* decrease the pending activations... ready or stacked => (nact>0) */
  EE_th_nact[current]--;
 5a2:	28 2f       	mov	r18, r24
 5a4:	33 27       	eor	r19, r19
 5a6:	27 fd       	sbrc	r18, 7
 5a8:	30 95       	com	r19
 5aa:	f9 01       	movw	r30, r18
 5ac:	e6 5e       	subi	r30, 0xE6	; 230
 5ae:	fe 4f       	sbci	r31, 0xFE	; 254
 5b0:	90 81       	ld	r25, Z
 5b2:	91 50       	subi	r25, 0x01	; 1
 5b4:	90 83       	st	Z, r25
   * suspended!!! */
  EE_th_status[current] = EE_READY;
#endif
  
  /* reset the task priority bit in the system_ceiling */
  EE_sys_ceiling &= ~EE_th_dispatch_prio[current];
 5b6:	f9 01       	movw	r30, r18
 5b8:	ec 5f       	subi	r30, 0xFC	; 252
 5ba:	fe 4f       	sbci	r31, 0xFE	; 254
 5bc:	50 81       	ld	r21, Z
 5be:	50 95       	com	r21
 5c0:	40 91 0c 01 	lds	r20, 0x010C
 5c4:	45 23       	and	r20, r21
 5c6:	40 93 0c 01 	sts	0x010C, r20

/* extract the running task from the stack */
#ifndef __PRIVATE_STK_GETFIRST__
__INLINE__ void __ALWAYS_INLINE__ EE_stk_getfirst(void)
{
    EE_stkfirst = EE_th_next[EE_stkfirst];
 5ca:	f9 01       	movw	r30, r18
 5cc:	ee 5f       	subi	r30, 0xFE	; 254
 5ce:	fe 4f       	sbci	r31, 0xFE	; 254
 5d0:	20 81       	ld	r18, Z
 5d2:	20 93 01 01 	sts	0x0101, r18
  
  /* extract the task from the stk data structure */
  EE_stk_getfirst();
  
  if (EE_th_nact[current] > 0U) {
 5d6:	91 11       	cpse	r25, r1
    /* there are pending activations...  */
    /* we have to reinsert the task into the ready queue before
     * rescheduling!!! */
    EE_rq_insert(current);
 5d8:	0e 94 a2 02 	call	0x544	; 0x544 <EE_rq_insert>

/* return the first ready task without extracting it */
#ifndef __PRIVATE_RQ_QUERYFIRST__
__INLINE__ EE_TID __ALWAYS_INLINE__ EE_rq_queryfirst(void)
{
    return EE_rqfirst;  
 5dc:	80 91 00 01 	lds	r24, 0x0100
  }
  
  /* check if there is to schedule a ready task pop a preempted
   * task   */
  if ((EE_rq_queryfirst() == EE_NIL) ||
 5e0:	8f 3f       	cpi	r24, 0xFF	; 255
 5e2:	59 f0       	breq	.+22     	; 0x5fa <EE_thread_end_instance+0x5c>
      (EE_sys_ceiling >= EE_th_ready_prio[EE_rq_queryfirst()])) {
 5e4:	20 91 0c 01 	lds	r18, 0x010C
 5e8:	99 27       	eor	r25, r25
 5ea:	87 fd       	sbrc	r24, 7
 5ec:	90 95       	com	r25
 5ee:	fc 01       	movw	r30, r24
 5f0:	ea 5f       	subi	r30, 0xFA	; 250
 5f2:	fe 4f       	sbci	r31, 0xFE	; 254
    EE_rq_insert(current);
  }
  
  /* check if there is to schedule a ready task pop a preempted
   * task   */
  if ((EE_rq_queryfirst() == EE_NIL) ||
 5f4:	30 81       	ld	r19, Z
 5f6:	23 17       	cp	r18, r19
 5f8:	10 f0       	brcs	.+4      	; 0x5fe <EE_thread_end_instance+0x60>
}
#else
#define EE_hal_endcycle_stacked(x) EE_hal_endcycle_stacked_impl()
__INLINE__ void __ALWAYS_INLINE__ EE_hal_endcycle_stacked_impl(void)
{
    EE_std_endcycle_next_tid = ((EE_TID)-1);
 5fa:	8f ef       	ldi	r24, 0xFF	; 255
 5fc:	09 c0       	rjmp	.+18     	; 0x610 <EE_thread_end_instance+0x72>
    
#if defined(__MULTI__) || defined(__WITH_STATUS__)
    EE_th_status[EE_rq_queryfirst()] = EE_STACKED;
#endif

    EE_sys_ceiling |= EE_th_dispatch_prio[EE_rq_queryfirst()];
 5fe:	fc 01       	movw	r30, r24
 600:	ec 5f       	subi	r30, 0xFC	; 252
 602:	fe 4f       	sbci	r31, 0xFE	; 254
 604:	80 81       	ld	r24, Z
 606:	82 2b       	or	r24, r18
 608:	80 93 0c 01 	sts	0x010C, r24
    if (flag)
      EE_hal_endcycle_stacked(EE_rq2stk_exchange());
    else
      EE_hal_endcycle_ready(EE_rq2stk_exchange());
#else
    EE_hal_endcycle_ready(EE_rq2stk_exchange());
 60c:	0e 94 91 02 	call	0x522	; 0x522 <EE_rq2stk_exchange>
}


__INLINE__ void __ALWAYS_INLINE__ EE_hal_endcycle_ready(EE_TID tid)
{
    EE_std_endcycle_next_tid = tid;
 610:	80 93 2d 01 	sts	0x012D, r24
 614:	08 95       	ret

00000616 <__vector_16>:
#if defined(__AVR_ATtiny24__) || defined(__AVR_ATtiny44__) || defined(__AVR_ATtiny84__)
ISR(TIM0_OVF_vect)
#else
ISR(TIMER0_OVF_vect)
#endif
{
 616:	1f 92       	push	r1
 618:	0f 92       	push	r0
 61a:	0f b6       	in	r0, 0x3f	; 63
 61c:	0f 92       	push	r0
 61e:	11 24       	eor	r1, r1
 620:	2f 93       	push	r18
 622:	3f 93       	push	r19
 624:	8f 93       	push	r24
 626:	9f 93       	push	r25
 628:	af 93       	push	r26
 62a:	bf 93       	push	r27
	// copy these to local variables so they can be stored in registers
	// (volatile variables must be read from memory on every access)
	unsigned long m = timer0_millis;
 62c:	80 91 11 01 	lds	r24, 0x0111
 630:	90 91 12 01 	lds	r25, 0x0112
 634:	a0 91 13 01 	lds	r26, 0x0113
 638:	b0 91 14 01 	lds	r27, 0x0114
	unsigned char f = timer0_fract;
 63c:	30 91 10 01 	lds	r19, 0x0110

	m += MILLIS_INC;
	f += FRACT_INC;
 640:	23 e0       	ldi	r18, 0x03	; 3
 642:	23 0f       	add	r18, r19
	if (f >= FRACT_MAX) {
 644:	2d 37       	cpi	r18, 0x7D	; 125
 646:	20 f4       	brcc	.+8      	; 0x650 <__vector_16+0x3a>
	// copy these to local variables so they can be stored in registers
	// (volatile variables must be read from memory on every access)
	unsigned long m = timer0_millis;
	unsigned char f = timer0_fract;

	m += MILLIS_INC;
 648:	01 96       	adiw	r24, 0x01	; 1
 64a:	a1 1d       	adc	r26, r1
 64c:	b1 1d       	adc	r27, r1
 64e:	05 c0       	rjmp	.+10     	; 0x65a <__vector_16+0x44>
	f += FRACT_INC;
	if (f >= FRACT_MAX) {
		f -= FRACT_MAX;
 650:	26 e8       	ldi	r18, 0x86	; 134
 652:	23 0f       	add	r18, r19
		m += 1;
 654:	02 96       	adiw	r24, 0x02	; 2
 656:	a1 1d       	adc	r26, r1
 658:	b1 1d       	adc	r27, r1
	}

	timer0_fract = f;
 65a:	20 93 10 01 	sts	0x0110, r18
	timer0_millis = m;
 65e:	80 93 11 01 	sts	0x0111, r24
 662:	90 93 12 01 	sts	0x0112, r25
 666:	a0 93 13 01 	sts	0x0113, r26
 66a:	b0 93 14 01 	sts	0x0114, r27
	timer0_overflow_count++;
 66e:	80 91 15 01 	lds	r24, 0x0115
 672:	90 91 16 01 	lds	r25, 0x0116
 676:	a0 91 17 01 	lds	r26, 0x0117
 67a:	b0 91 18 01 	lds	r27, 0x0118
 67e:	01 96       	adiw	r24, 0x01	; 1
 680:	a1 1d       	adc	r26, r1
 682:	b1 1d       	adc	r27, r1
 684:	80 93 15 01 	sts	0x0115, r24
 688:	90 93 16 01 	sts	0x0116, r25
 68c:	a0 93 17 01 	sts	0x0117, r26
 690:	b0 93 18 01 	sts	0x0118, r27
}
 694:	bf 91       	pop	r27
 696:	af 91       	pop	r26
 698:	9f 91       	pop	r25
 69a:	8f 91       	pop	r24
 69c:	3f 91       	pop	r19
 69e:	2f 91       	pop	r18
 6a0:	0f 90       	pop	r0
 6a2:	0f be       	out	0x3f, r0	; 63
 6a4:	0f 90       	pop	r0
 6a6:	1f 90       	pop	r1
 6a8:	18 95       	reti

000006aa <init>:

void init()
{
	// this needs to be called before setup() or some functions won't
	// work there
	sei();
 6aa:	78 94       	sei
	
	// on the ATmega168, timer 0 is also used for fast hardware pwm
	// (using phase-correct PWM would mean that timer 0 overflowed half as often
	// resulting in different millis() behavior on the ATmega8 and ATmega168)
#if defined(TCCR0A) && defined(WGM01)
	sbi(TCCR0A, WGM01);
 6ac:	84 b5       	in	r24, 0x24	; 36
 6ae:	82 60       	ori	r24, 0x02	; 2
 6b0:	84 bd       	out	0x24, r24	; 36
	sbi(TCCR0A, WGM00);
 6b2:	84 b5       	in	r24, 0x24	; 36
 6b4:	81 60       	ori	r24, 0x01	; 1
 6b6:	84 bd       	out	0x24, r24	; 36
	// this combination is for the standard atmega8
	sbi(TCCR0, CS01);
	sbi(TCCR0, CS00);
#elif defined(TCCR0B) && defined(CS01) && defined(CS00)
	// this combination is for the standard 168/328/1280/2560
	sbi(TCCR0B, CS01);
 6b8:	85 b5       	in	r24, 0x25	; 37
 6ba:	82 60       	ori	r24, 0x02	; 2
 6bc:	85 bd       	out	0x25, r24	; 37
	sbi(TCCR0B, CS00);
 6be:	85 b5       	in	r24, 0x25	; 37
 6c0:	81 60       	ori	r24, 0x01	; 1
 6c2:	85 bd       	out	0x25, r24	; 37

	// enable timer 0 overflow interrupt
#if defined(TIMSK) && defined(TOIE0)
	sbi(TIMSK, TOIE0);
#elif defined(TIMSK0) && defined(TOIE0)
	sbi(TIMSK0, TOIE0);
 6c4:	ee e6       	ldi	r30, 0x6E	; 110
 6c6:	f0 e0       	ldi	r31, 0x00	; 0
 6c8:	80 81       	ld	r24, Z
 6ca:	81 60       	ori	r24, 0x01	; 1
 6cc:	80 83       	st	Z, r24
	// this is better for motors as it ensures an even waveform
	// note, however, that fast pwm mode can achieve a frequency of up
	// 8 MHz (with a 16 MHz clock) at 50% duty cycle

#if defined(TCCR1B) && defined(CS11) && defined(CS10)
	TCCR1B = 0;
 6ce:	e1 e8       	ldi	r30, 0x81	; 129
 6d0:	f0 e0       	ldi	r31, 0x00	; 0
 6d2:	10 82       	st	Z, r1

	// set timer 1 prescale factor to 64
	sbi(TCCR1B, CS11);
 6d4:	80 81       	ld	r24, Z
 6d6:	82 60       	ori	r24, 0x02	; 2
 6d8:	80 83       	st	Z, r24
#if F_CPU >= 8000000L
	sbi(TCCR1B, CS10);
 6da:	80 81       	ld	r24, Z
 6dc:	81 60       	ori	r24, 0x01	; 1
 6de:	80 83       	st	Z, r24
	sbi(TCCR1, CS10);
#endif
#endif
	// put timer 1 in 8-bit phase correct pwm mode
#if defined(TCCR1A) && defined(WGM10)
	sbi(TCCR1A, WGM10);
 6e0:	e0 e8       	ldi	r30, 0x80	; 128
 6e2:	f0 e0       	ldi	r31, 0x00	; 0
 6e4:	80 81       	ld	r24, Z
 6e6:	81 60       	ori	r24, 0x01	; 1
 6e8:	80 83       	st	Z, r24

	// set timer 2 prescale factor to 64
#if defined(TCCR2) && defined(CS22)
	sbi(TCCR2, CS22);
#elif defined(TCCR2B) && defined(CS22)
	sbi(TCCR2B, CS22);
 6ea:	e1 eb       	ldi	r30, 0xB1	; 177
 6ec:	f0 e0       	ldi	r31, 0x00	; 0
 6ee:	80 81       	ld	r24, Z
 6f0:	84 60       	ori	r24, 0x04	; 4
 6f2:	80 83       	st	Z, r24

	// configure timer 2 for phase correct pwm (8-bit)
#if defined(TCCR2) && defined(WGM20)
	sbi(TCCR2, WGM20);
#elif defined(TCCR2A) && defined(WGM20)
	sbi(TCCR2A, WGM20);
 6f4:	e0 eb       	ldi	r30, 0xB0	; 176
 6f6:	f0 e0       	ldi	r31, 0x00	; 0
 6f8:	80 81       	ld	r24, Z
 6fa:	81 60       	ori	r24, 0x01	; 1
 6fc:	80 83       	st	Z, r24
#if defined(ADCSRA)
	// set a2d prescale factor to 128
	// 16 MHz / 128 = 125 KHz, inside the desired 50-200 KHz range.
	// XXX: this will not work properly for other clock speeds, and
	// this code should use F_CPU to determine the prescale factor.
	sbi(ADCSRA, ADPS2);
 6fe:	ea e7       	ldi	r30, 0x7A	; 122
 700:	f0 e0       	ldi	r31, 0x00	; 0
 702:	80 81       	ld	r24, Z
 704:	84 60       	ori	r24, 0x04	; 4
 706:	80 83       	st	Z, r24
	sbi(ADCSRA, ADPS1);
 708:	80 81       	ld	r24, Z
 70a:	82 60       	ori	r24, 0x02	; 2
 70c:	80 83       	st	Z, r24
	sbi(ADCSRA, ADPS0);
 70e:	80 81       	ld	r24, Z
 710:	81 60       	ori	r24, 0x01	; 1
 712:	80 83       	st	Z, r24

	// enable a2d conversions
	sbi(ADCSRA, ADEN);
 714:	80 81       	ld	r24, Z
 716:	80 68       	ori	r24, 0x80	; 128
 718:	80 83       	st	Z, r24
	// here so they can be used as normal digital i/o; they will be
	// reconnected in Serial.begin()
#if defined(UCSRB)
	UCSRB = 0;
#elif defined(UCSR0B)
	UCSR0B = 0;
 71a:	10 92 c1 00 	sts	0x00C1, r1
 71e:	08 95       	ret

00000720 <__fixunssfsi>:
 720:	70 d0       	rcall	.+224    	; 0x802 <__fp_splitA>
 722:	88 f0       	brcs	.+34     	; 0x746 <__fixunssfsi+0x26>
 724:	9f 57       	subi	r25, 0x7F	; 127
 726:	90 f0       	brcs	.+36     	; 0x74c <__fixunssfsi+0x2c>
 728:	b9 2f       	mov	r27, r25
 72a:	99 27       	eor	r25, r25
 72c:	b7 51       	subi	r27, 0x17	; 23
 72e:	a0 f0       	brcs	.+40     	; 0x758 <__fixunssfsi+0x38>
 730:	d1 f0       	breq	.+52     	; 0x766 <__fixunssfsi+0x46>
 732:	66 0f       	add	r22, r22
 734:	77 1f       	adc	r23, r23
 736:	88 1f       	adc	r24, r24
 738:	99 1f       	adc	r25, r25
 73a:	1a f0       	brmi	.+6      	; 0x742 <__fixunssfsi+0x22>
 73c:	ba 95       	dec	r27
 73e:	c9 f7       	brne	.-14     	; 0x732 <__fixunssfsi+0x12>
 740:	12 c0       	rjmp	.+36     	; 0x766 <__fixunssfsi+0x46>
 742:	b1 30       	cpi	r27, 0x01	; 1
 744:	81 f0       	breq	.+32     	; 0x766 <__fixunssfsi+0x46>
 746:	77 d0       	rcall	.+238    	; 0x836 <__fp_zero>
 748:	b1 e0       	ldi	r27, 0x01	; 1
 74a:	08 95       	ret
 74c:	74 c0       	rjmp	.+232    	; 0x836 <__fp_zero>
 74e:	67 2f       	mov	r22, r23
 750:	78 2f       	mov	r23, r24
 752:	88 27       	eor	r24, r24
 754:	b8 5f       	subi	r27, 0xF8	; 248
 756:	39 f0       	breq	.+14     	; 0x766 <__fixunssfsi+0x46>
 758:	b9 3f       	cpi	r27, 0xF9	; 249
 75a:	cc f3       	brlt	.-14     	; 0x74e <__fixunssfsi+0x2e>
 75c:	86 95       	lsr	r24
 75e:	77 95       	ror	r23
 760:	67 95       	ror	r22
 762:	b3 95       	inc	r27
 764:	d9 f7       	brne	.-10     	; 0x75c <__fixunssfsi+0x3c>
 766:	3e f4       	brtc	.+14     	; 0x776 <__fixunssfsi+0x56>
 768:	90 95       	com	r25
 76a:	80 95       	com	r24
 76c:	70 95       	com	r23
 76e:	61 95       	neg	r22
 770:	7f 4f       	sbci	r23, 0xFF	; 255
 772:	8f 4f       	sbci	r24, 0xFF	; 255
 774:	9f 4f       	sbci	r25, 0xFF	; 255
 776:	08 95       	ret

00000778 <__floatunsisf>:
 778:	e8 94       	clt
 77a:	09 c0       	rjmp	.+18     	; 0x78e <__floatsisf+0x12>

0000077c <__floatsisf>:
 77c:	97 fb       	bst	r25, 7
 77e:	3e f4       	brtc	.+14     	; 0x78e <__floatsisf+0x12>
 780:	90 95       	com	r25
 782:	80 95       	com	r24
 784:	70 95       	com	r23
 786:	61 95       	neg	r22
 788:	7f 4f       	sbci	r23, 0xFF	; 255
 78a:	8f 4f       	sbci	r24, 0xFF	; 255
 78c:	9f 4f       	sbci	r25, 0xFF	; 255
 78e:	99 23       	and	r25, r25
 790:	a9 f0       	breq	.+42     	; 0x7bc <__floatsisf+0x40>
 792:	f9 2f       	mov	r31, r25
 794:	96 e9       	ldi	r25, 0x96	; 150
 796:	bb 27       	eor	r27, r27
 798:	93 95       	inc	r25
 79a:	f6 95       	lsr	r31
 79c:	87 95       	ror	r24
 79e:	77 95       	ror	r23
 7a0:	67 95       	ror	r22
 7a2:	b7 95       	ror	r27
 7a4:	f1 11       	cpse	r31, r1
 7a6:	f8 cf       	rjmp	.-16     	; 0x798 <__floatsisf+0x1c>
 7a8:	fa f4       	brpl	.+62     	; 0x7e8 <__floatsisf+0x6c>
 7aa:	bb 0f       	add	r27, r27
 7ac:	11 f4       	brne	.+4      	; 0x7b2 <__floatsisf+0x36>
 7ae:	60 ff       	sbrs	r22, 0
 7b0:	1b c0       	rjmp	.+54     	; 0x7e8 <__floatsisf+0x6c>
 7b2:	6f 5f       	subi	r22, 0xFF	; 255
 7b4:	7f 4f       	sbci	r23, 0xFF	; 255
 7b6:	8f 4f       	sbci	r24, 0xFF	; 255
 7b8:	9f 4f       	sbci	r25, 0xFF	; 255
 7ba:	16 c0       	rjmp	.+44     	; 0x7e8 <__floatsisf+0x6c>
 7bc:	88 23       	and	r24, r24
 7be:	11 f0       	breq	.+4      	; 0x7c4 <__floatsisf+0x48>
 7c0:	96 e9       	ldi	r25, 0x96	; 150
 7c2:	11 c0       	rjmp	.+34     	; 0x7e6 <__floatsisf+0x6a>
 7c4:	77 23       	and	r23, r23
 7c6:	21 f0       	breq	.+8      	; 0x7d0 <__floatsisf+0x54>
 7c8:	9e e8       	ldi	r25, 0x8E	; 142
 7ca:	87 2f       	mov	r24, r23
 7cc:	76 2f       	mov	r23, r22
 7ce:	05 c0       	rjmp	.+10     	; 0x7da <__floatsisf+0x5e>
 7d0:	66 23       	and	r22, r22
 7d2:	71 f0       	breq	.+28     	; 0x7f0 <__floatsisf+0x74>
 7d4:	96 e8       	ldi	r25, 0x86	; 134
 7d6:	86 2f       	mov	r24, r22
 7d8:	70 e0       	ldi	r23, 0x00	; 0
 7da:	60 e0       	ldi	r22, 0x00	; 0
 7dc:	2a f0       	brmi	.+10     	; 0x7e8 <__floatsisf+0x6c>
 7de:	9a 95       	dec	r25
 7e0:	66 0f       	add	r22, r22
 7e2:	77 1f       	adc	r23, r23
 7e4:	88 1f       	adc	r24, r24
 7e6:	da f7       	brpl	.-10     	; 0x7de <__floatsisf+0x62>
 7e8:	88 0f       	add	r24, r24
 7ea:	96 95       	lsr	r25
 7ec:	87 95       	ror	r24
 7ee:	97 f9       	bld	r25, 7
 7f0:	08 95       	ret

000007f2 <__fp_split3>:
 7f2:	57 fd       	sbrc	r21, 7
 7f4:	90 58       	subi	r25, 0x80	; 128
 7f6:	44 0f       	add	r20, r20
 7f8:	55 1f       	adc	r21, r21
 7fa:	59 f0       	breq	.+22     	; 0x812 <__fp_splitA+0x10>
 7fc:	5f 3f       	cpi	r21, 0xFF	; 255
 7fe:	71 f0       	breq	.+28     	; 0x81c <__fp_splitA+0x1a>
 800:	47 95       	ror	r20

00000802 <__fp_splitA>:
 802:	88 0f       	add	r24, r24
 804:	97 fb       	bst	r25, 7
 806:	99 1f       	adc	r25, r25
 808:	61 f0       	breq	.+24     	; 0x822 <__fp_splitA+0x20>
 80a:	9f 3f       	cpi	r25, 0xFF	; 255
 80c:	79 f0       	breq	.+30     	; 0x82c <__fp_splitA+0x2a>
 80e:	87 95       	ror	r24
 810:	08 95       	ret
 812:	12 16       	cp	r1, r18
 814:	13 06       	cpc	r1, r19
 816:	14 06       	cpc	r1, r20
 818:	55 1f       	adc	r21, r21
 81a:	f2 cf       	rjmp	.-28     	; 0x800 <__fp_split3+0xe>
 81c:	46 95       	lsr	r20
 81e:	f1 df       	rcall	.-30     	; 0x802 <__fp_splitA>
 820:	08 c0       	rjmp	.+16     	; 0x832 <__fp_splitA+0x30>
 822:	16 16       	cp	r1, r22
 824:	17 06       	cpc	r1, r23
 826:	18 06       	cpc	r1, r24
 828:	99 1f       	adc	r25, r25
 82a:	f1 cf       	rjmp	.-30     	; 0x80e <__fp_splitA+0xc>
 82c:	86 95       	lsr	r24
 82e:	71 05       	cpc	r23, r1
 830:	61 05       	cpc	r22, r1
 832:	08 94       	sec
 834:	08 95       	ret

00000836 <__fp_zero>:
 836:	e8 94       	clt

00000838 <__fp_szero>:
 838:	bb 27       	eor	r27, r27
 83a:	66 27       	eor	r22, r22
 83c:	77 27       	eor	r23, r23
 83e:	cb 01       	movw	r24, r22
 840:	97 f9       	bld	r25, 7
 842:	08 95       	ret

00000844 <__mulsf3>:
 844:	0b d0       	rcall	.+22     	; 0x85c <__mulsf3x>
 846:	78 c0       	rjmp	.+240    	; 0x938 <__fp_round>
 848:	69 d0       	rcall	.+210    	; 0x91c <__fp_pscA>
 84a:	28 f0       	brcs	.+10     	; 0x856 <__mulsf3+0x12>
 84c:	6e d0       	rcall	.+220    	; 0x92a <__fp_pscB>
 84e:	18 f0       	brcs	.+6      	; 0x856 <__mulsf3+0x12>
 850:	95 23       	and	r25, r21
 852:	09 f0       	breq	.+2      	; 0x856 <__mulsf3+0x12>
 854:	5a c0       	rjmp	.+180    	; 0x90a <__fp_inf>
 856:	5f c0       	rjmp	.+190    	; 0x916 <__fp_nan>
 858:	11 24       	eor	r1, r1
 85a:	ee cf       	rjmp	.-36     	; 0x838 <__fp_szero>

0000085c <__mulsf3x>:
 85c:	ca df       	rcall	.-108    	; 0x7f2 <__fp_split3>
 85e:	a0 f3       	brcs	.-24     	; 0x848 <__mulsf3+0x4>

00000860 <__mulsf3_pse>:
 860:	95 9f       	mul	r25, r21
 862:	d1 f3       	breq	.-12     	; 0x858 <__mulsf3+0x14>
 864:	95 0f       	add	r25, r21
 866:	50 e0       	ldi	r21, 0x00	; 0
 868:	55 1f       	adc	r21, r21
 86a:	62 9f       	mul	r22, r18
 86c:	f0 01       	movw	r30, r0
 86e:	72 9f       	mul	r23, r18
 870:	bb 27       	eor	r27, r27
 872:	f0 0d       	add	r31, r0
 874:	b1 1d       	adc	r27, r1
 876:	63 9f       	mul	r22, r19
 878:	aa 27       	eor	r26, r26
 87a:	f0 0d       	add	r31, r0
 87c:	b1 1d       	adc	r27, r1
 87e:	aa 1f       	adc	r26, r26
 880:	64 9f       	mul	r22, r20
 882:	66 27       	eor	r22, r22
 884:	b0 0d       	add	r27, r0
 886:	a1 1d       	adc	r26, r1
 888:	66 1f       	adc	r22, r22
 88a:	82 9f       	mul	r24, r18
 88c:	22 27       	eor	r18, r18
 88e:	b0 0d       	add	r27, r0
 890:	a1 1d       	adc	r26, r1
 892:	62 1f       	adc	r22, r18
 894:	73 9f       	mul	r23, r19
 896:	b0 0d       	add	r27, r0
 898:	a1 1d       	adc	r26, r1
 89a:	62 1f       	adc	r22, r18
 89c:	83 9f       	mul	r24, r19
 89e:	a0 0d       	add	r26, r0
 8a0:	61 1d       	adc	r22, r1
 8a2:	22 1f       	adc	r18, r18
 8a4:	74 9f       	mul	r23, r20
 8a6:	33 27       	eor	r19, r19
 8a8:	a0 0d       	add	r26, r0
 8aa:	61 1d       	adc	r22, r1
 8ac:	23 1f       	adc	r18, r19
 8ae:	84 9f       	mul	r24, r20
 8b0:	60 0d       	add	r22, r0
 8b2:	21 1d       	adc	r18, r1
 8b4:	82 2f       	mov	r24, r18
 8b6:	76 2f       	mov	r23, r22
 8b8:	6a 2f       	mov	r22, r26
 8ba:	11 24       	eor	r1, r1
 8bc:	9f 57       	subi	r25, 0x7F	; 127
 8be:	50 40       	sbci	r21, 0x00	; 0
 8c0:	8a f0       	brmi	.+34     	; 0x8e4 <__mulsf3_pse+0x84>
 8c2:	e1 f0       	breq	.+56     	; 0x8fc <__mulsf3_pse+0x9c>
 8c4:	88 23       	and	r24, r24
 8c6:	4a f0       	brmi	.+18     	; 0x8da <__mulsf3_pse+0x7a>
 8c8:	ee 0f       	add	r30, r30
 8ca:	ff 1f       	adc	r31, r31
 8cc:	bb 1f       	adc	r27, r27
 8ce:	66 1f       	adc	r22, r22
 8d0:	77 1f       	adc	r23, r23
 8d2:	88 1f       	adc	r24, r24
 8d4:	91 50       	subi	r25, 0x01	; 1
 8d6:	50 40       	sbci	r21, 0x00	; 0
 8d8:	a9 f7       	brne	.-22     	; 0x8c4 <__mulsf3_pse+0x64>
 8da:	9e 3f       	cpi	r25, 0xFE	; 254
 8dc:	51 05       	cpc	r21, r1
 8de:	70 f0       	brcs	.+28     	; 0x8fc <__mulsf3_pse+0x9c>
 8e0:	14 c0       	rjmp	.+40     	; 0x90a <__fp_inf>
 8e2:	aa cf       	rjmp	.-172    	; 0x838 <__fp_szero>
 8e4:	5f 3f       	cpi	r21, 0xFF	; 255
 8e6:	ec f3       	brlt	.-6      	; 0x8e2 <__mulsf3_pse+0x82>
 8e8:	98 3e       	cpi	r25, 0xE8	; 232
 8ea:	dc f3       	brlt	.-10     	; 0x8e2 <__mulsf3_pse+0x82>
 8ec:	86 95       	lsr	r24
 8ee:	77 95       	ror	r23
 8f0:	67 95       	ror	r22
 8f2:	b7 95       	ror	r27
 8f4:	f7 95       	ror	r31
 8f6:	e7 95       	ror	r30
 8f8:	9f 5f       	subi	r25, 0xFF	; 255
 8fa:	c1 f7       	brne	.-16     	; 0x8ec <__mulsf3_pse+0x8c>
 8fc:	fe 2b       	or	r31, r30
 8fe:	88 0f       	add	r24, r24
 900:	91 1d       	adc	r25, r1
 902:	96 95       	lsr	r25
 904:	87 95       	ror	r24
 906:	97 f9       	bld	r25, 7
 908:	08 95       	ret

0000090a <__fp_inf>:
 90a:	97 f9       	bld	r25, 7
 90c:	9f 67       	ori	r25, 0x7F	; 127
 90e:	80 e8       	ldi	r24, 0x80	; 128
 910:	70 e0       	ldi	r23, 0x00	; 0
 912:	60 e0       	ldi	r22, 0x00	; 0
 914:	08 95       	ret

00000916 <__fp_nan>:
 916:	9f ef       	ldi	r25, 0xFF	; 255
 918:	80 ec       	ldi	r24, 0xC0	; 192
 91a:	08 95       	ret

0000091c <__fp_pscA>:
 91c:	00 24       	eor	r0, r0
 91e:	0a 94       	dec	r0
 920:	16 16       	cp	r1, r22
 922:	17 06       	cpc	r1, r23
 924:	18 06       	cpc	r1, r24
 926:	09 06       	cpc	r0, r25
 928:	08 95       	ret

0000092a <__fp_pscB>:
 92a:	00 24       	eor	r0, r0
 92c:	0a 94       	dec	r0
 92e:	12 16       	cp	r1, r18
 930:	13 06       	cpc	r1, r19
 932:	14 06       	cpc	r1, r20
 934:	05 06       	cpc	r0, r21
 936:	08 95       	ret

00000938 <__fp_round>:
 938:	09 2e       	mov	r0, r25
 93a:	03 94       	inc	r0
 93c:	00 0c       	add	r0, r0
 93e:	11 f4       	brne	.+4      	; 0x944 <__fp_round+0xc>
 940:	88 23       	and	r24, r24
 942:	52 f0       	brmi	.+20     	; 0x958 <__fp_round+0x20>
 944:	bb 0f       	add	r27, r27
 946:	40 f4       	brcc	.+16     	; 0x958 <__fp_round+0x20>
 948:	bf 2b       	or	r27, r31
 94a:	11 f4       	brne	.+4      	; 0x950 <__fp_round+0x18>
 94c:	60 ff       	sbrs	r22, 0
 94e:	04 c0       	rjmp	.+8      	; 0x958 <__fp_round+0x20>
 950:	6f 5f       	subi	r22, 0xFF	; 255
 952:	7f 4f       	sbci	r23, 0xFF	; 255
 954:	8f 4f       	sbci	r24, 0xFF	; 255
 956:	9f 4f       	sbci	r25, 0xFF	; 255
 958:	08 95       	ret

0000095a <_exit>:
 95a:	f8 94       	cli

0000095c <__stop_program>:
 95c:	ff cf       	rjmp	.-2      	; 0x95c <__stop_program>
