Archive member included because of file (symbol)

./libee.a(ee_thact.o)         obj/code.o (EE_fp_ActivateTask)
./libee.a(ee_intvect.o)       obj/code.o (EE_atmega_intvect)
./libee.a(ee_hal_structs.o)   ./libee.a(ee_thact.o) (EE_IRQ_nesting_level)
./libee.a(ee_context.o)       ./libee.a(ee_thact.o) (EE_std_run_task_code)
./libee.a(ee_rqexchg.o)       ./libee.a(ee_thact.o) (EE_rq2stk_exchange)
./libee.a(ee_rqinsert.o)      ./libee.a(ee_thact.o) (EE_rq_insert)
./libee.a(ee_thendin.o)       ./libee.a(ee_context.o) (EE_thread_end_instance)
libarduinosdk.a(wiring.o)     obj/code.o (init)
/opt/case/compilers/avr8-gnu-toolchain-linux_x86/bin/../lib/gcc/avr/4.8.1/../../../../avr/lib/avr5/libm.a(fixunssfsi.o)
                              obj/code.o (__fixunssfsi)
/opt/case/compilers/avr8-gnu-toolchain-linux_x86/bin/../lib/gcc/avr/4.8.1/../../../../avr/lib/avr5/libm.a(floatsisf.o)
                              obj/code.o (__floatunsisf)
/opt/case/compilers/avr8-gnu-toolchain-linux_x86/bin/../lib/gcc/avr/4.8.1/../../../../avr/lib/avr5/libm.a(fp_split3.o)
                              /opt/case/compilers/avr8-gnu-toolchain-linux_x86/bin/../lib/gcc/avr/4.8.1/../../../../avr/lib/avr5/libm.a(fixunssfsi.o) (__fp_splitA)
/opt/case/compilers/avr8-gnu-toolchain-linux_x86/bin/../lib/gcc/avr/4.8.1/../../../../avr/lib/avr5/libm.a(fp_zero.o)
                              /opt/case/compilers/avr8-gnu-toolchain-linux_x86/bin/../lib/gcc/avr/4.8.1/../../../../avr/lib/avr5/libm.a(fixunssfsi.o) (__fp_zero)
/opt/case/compilers/avr8-gnu-toolchain-linux_x86/bin/../lib/gcc/avr/4.8.1/../../../../avr/lib/avr5/libm.a(mulsf3.o)
                              obj/code.o (__mulsf3)
/opt/case/compilers/avr8-gnu-toolchain-linux_x86/bin/../lib/gcc/avr/4.8.1/../../../../avr/lib/avr5/libm.a(mulsf3x.o)
                              /opt/case/compilers/avr8-gnu-toolchain-linux_x86/bin/../lib/gcc/avr/4.8.1/../../../../avr/lib/avr5/libm.a(mulsf3.o) (__mulsf3x)
/opt/case/compilers/avr8-gnu-toolchain-linux_x86/bin/../lib/gcc/avr/4.8.1/../../../../avr/lib/avr5/libm.a(fp_inf.o)
                              /opt/case/compilers/avr8-gnu-toolchain-linux_x86/bin/../lib/gcc/avr/4.8.1/../../../../avr/lib/avr5/libm.a(mulsf3x.o) (__fp_inf)
/opt/case/compilers/avr8-gnu-toolchain-linux_x86/bin/../lib/gcc/avr/4.8.1/../../../../avr/lib/avr5/libm.a(fp_nan.o)
                              /opt/case/compilers/avr8-gnu-toolchain-linux_x86/bin/../lib/gcc/avr/4.8.1/../../../../avr/lib/avr5/libm.a(mulsf3x.o) (__fp_nan)
/opt/case/compilers/avr8-gnu-toolchain-linux_x86/bin/../lib/gcc/avr/4.8.1/../../../../avr/lib/avr5/libm.a(fp_pscA.o)
                              /opt/case/compilers/avr8-gnu-toolchain-linux_x86/bin/../lib/gcc/avr/4.8.1/../../../../avr/lib/avr5/libm.a(mulsf3x.o) (__fp_pscA)
/opt/case/compilers/avr8-gnu-toolchain-linux_x86/bin/../lib/gcc/avr/4.8.1/../../../../avr/lib/avr5/libm.a(fp_pscB.o)
                              /opt/case/compilers/avr8-gnu-toolchain-linux_x86/bin/../lib/gcc/avr/4.8.1/../../../../avr/lib/avr5/libm.a(mulsf3x.o) (__fp_pscB)
/opt/case/compilers/avr8-gnu-toolchain-linux_x86/bin/../lib/gcc/avr/4.8.1/../../../../avr/lib/avr5/libm.a(fp_round.o)
                              /opt/case/compilers/avr8-gnu-toolchain-linux_x86/bin/../lib/gcc/avr/4.8.1/../../../../avr/lib/avr5/libm.a(mulsf3.o) (__fp_round)
/opt/case/compilers/avr8-gnu-toolchain-linux_x86/bin/../lib/gcc/avr/4.8.1/avr5/libgcc.a(_exit.o)
                              /opt/case/compilers/avr8-gnu-toolchain-linux_x86/bin/../lib/gcc/avr/4.8.1/../../../../avr/lib/avr5/crtm328p.o (exit)
/opt/case/compilers/avr8-gnu-toolchain-linux_x86/bin/../lib/gcc/avr/4.8.1/avr5/libgcc.a(_copy_data.o)
                              obj/eecfg.o (__do_copy_data)
/opt/case/compilers/avr8-gnu-toolchain-linux_x86/bin/../lib/gcc/avr/4.8.1/avr5/libgcc.a(_clear_bss.o)
                              obj/eecfg.o (__do_clear_bss)

Allocating common symbols
Common symbol       size              file

slot_flag           0x1               obj/slotDetection.o
EE_resource_oldceiling
                    0x1               obj/eecfg.o
EE_IRQ_nesting_level
                    0x1               ./libee.a(ee_hal_structs.o)
duration            0x2               obj/slotDetection.o
EE_std_endcycle_next_tid
                    0x1               ./libee.a(ee_hal_structs.o)
EE_th_nact          0x2               obj/eecfg.o

Discarded input sections

 .bss           0x00000000        0x0 /opt/case/compilers/avr8-gnu-toolchain-linux_x86/bin/../lib/gcc/avr/4.8.1/../../../../avr/lib/avr5/crtm328p.o
 .text          0x00000000        0x0 obj/eecfg.o
 .bss           0x00000000        0x0 obj/eecfg.o
 .rodata.EE_resource_ceiling
                0x00000000        0x1 obj/eecfg.o
 .text          0x00000000        0x0 obj/code.o
 .bss           0x00000000        0x0 obj/code.o
 .text._Z9pin_Writehhh
                0x00000000       0x3c obj/code.o
 .text._Z9pin_Statehh
                0x00000000       0x18 obj/code.o
 .text._Z11Timer0_initv
                0x00000000       0x14 obj/code.o
 .text._Z12Timer0_Startv
                0x00000000        0x8 obj/code.o
 .text._Z11Timer0_Stopv
                0x00000000        0x8 obj/code.o
 .text._Z12Timer0_Clearv
Memory Configuration

Name             Origin             Length             Attributes
text             0x00000000         0x00020000         xr
data             0x00800060         0x0000ffa0         rw !x
eeprom           0x00810000         0x00010000         rw !x
fuse             0x00820000         0x00000400         rw !x
lock             0x00830000         0x00000400         rw !x
signature        0x00840000         0x00000400         rw !x
user_signatures  0x00850000         0x00000400         rw !x
*default*        0x00000000         0xffffffff

Linker script and memory map

Address of section .data set to 0x800100
LOAD /opt/case/compilers/avr8-gnu-toolchain-linux_x86/bin/../lib/gcc/avr/4.8.1/../../../../avr/lib/avr5/crtm328p.o
LOAD obj/eecfg.o
LOAD obj/code.o
LOAD obj/slotDetection.o
LOAD obj/send.o
LOAD ./libee.a
LOAD libarduinosdk.a
LOAD /opt/case/compilers/avr8-gnu-toolchain-linux_x86/bin/../lib/gcc/avr/4.8.1/../../../../avr/lib/avr5/libm.a
START GROUP
LOAD /opt/case/compilers/avr8-gnu-toolchain-linux_x86/bin/../lib/gcc/avr/4.8.1/avr5/libgcc.a
LOAD /opt/case/compilers/avr8-gnu-toolchain-linux_x86/bin/../lib/gcc/avr/4.8.1/../../../../avr/lib/avr5/libm.a
LOAD /opt/case/compilers/avr8-gnu-toolchain-linux_x86/bin/../lib/gcc/avr/4.8.1/../../../../avr/lib/avr5/libc.a
END GROUP

.hash
 *(.hash)

.dynsym
 *(.dynsym)

.dynstr
 *(.dynstr)

.gnu.version
 *(.gnu.version)

.gnu.version_d
 *(.gnu.version_d)

.gnu.version_r
 *(.gnu.version_r)

.rel.init
 *(.rel.init)

.rela.init
 *(.rela.init)

.rel.text
 *(.rel.text)
 *(.rel.text.*)
 *(.rel.gnu.linkonce.t*)

.rela.text
 *(.rela.text)
 *(.rela.text.*)
 *(.rela.gnu.linkonce.t*)

.rel.fini
 *(.rel.fini)

.rela.fini
 *(.rela.fini)

.rel.rodata
 *(.rel.rodata)
 *(.rel.rodata.*)
 *(.rel.gnu.linkonce.r*)

.rela.rodata
 *(.rela.rodata)
 *(.rela.rodata.*)
 *(.rela.gnu.linkonce.r*)

.rel.data
 *(.rel.data)
 *(.rel.data.*)
 *(.rel.gnu.linkonce.d*)

.rela.data
 *(.rela.data)
 *(.rela.data.*)
 *(.rela.gnu.linkonce.d*)

.rel.ctors
 *(.rel.ctors)

.rela.ctors
 *(.rela.ctors)

.rel.dtors
 *(.rel.dtors)

.rela.dtors
 *(.rela.dtors)

.rel.got
 *(.rel.got)

.rela.got
 *(.rela.got)

.rel.bss
 *(.rel.bss)

.rela.bss
 *(.rela.bss)

.rel.plt
 *(.rel.plt)

.rela.plt
 *(.rela.plt)

.text           0x00000000      0xa38
 *(.vectors)
 .vectors       0x00000000       0x68 /opt/case/compilers/avr8-gnu-toolchain-linux_x86/bin/../lib/gcc/avr/4.8.1/../../../../avr/lib/avr5/crtm328p.o
                0x00000000                __vectors
                0x00000000                __vector_default
 *(.vectors)
 *(.progmem.gcc*)
                0x00000068                . = ALIGN (0x2)
                0x00000068                __trampolines_start = .
 *(.trampolines)
 .trampolines   0x00000068        0x0 linker stubs
 *(.trampolines*)
                0x00000068                __trampolines_end = .
 *(.progmem*)
                0x00000068                . = ALIGN (0x2)
 *(.jumptables)
 *(.jumptables*)
 *(.lowtext)
 *(.lowtext*)
                0x00000068                __ctors_start = .
 *(.ctors)
                0x00000068                __ctors_end = .
                0x00000068                __dtors_start = .
 *(.dtors)
                0x00000068                __dtors_end = .
 SORT(*)(.ctors)
 SORT(*)(.dtors)
 *(.init0)
 .init0         0x00000068        0x0 /opt/case/compilers/avr8-gnu-toolchain-linux_x86/bin/../lib/gcc/avr/4.8.1/../../../../avr/lib/avr5/crtm328p.o
                0x00000068                __init
 *(.init0)
 *(.init1)
 *(.init1)
 *(.init2)
 .init2         0x00000068        0xc /opt/case/compilers/avr8-gnu-toolchain-linux_x86/bin/../lib/gcc/avr/4.8.1/../../../../avr/lib/avr5/crtm328p.o
 *(.init2)
 *(.init3)
 *(.init3)
 *(.init4)
 .init4         0x00000074       0x16 /opt/case/compilers/avr8-gnu-toolchain-linux_x86/bin/../lib/gcc/avr/4.8.1/avr5/libgcc.a(_copy_data.o)
                0x00000074                __do_copy_data
 .init4         0x0000008a       0x10 /opt/case/compilers/avr8-gnu-toolchain-linux_x86/bin/../lib/gcc/avr/4.8.1/avr5/libgcc.a(_clear_bss.o)
                0x0000008a                __do_clear_bss
 *(.init4)
 *(.init5)
 *(.init5)
 *(.init6)
 *(.init6)
 *(.init7)
 *(.init7)
 *(.init8)
 *(.init8)
 *(.init9)
 .init9         0x0000009a        0x8 /opt/case/compilers/avr8-gnu-toolchain-linux_x86/bin/../lib/gcc/avr/4.8.1/../../../../avr/lib/avr5/crtm328p.o
 *(.init9)
 *(.text)
 .text          0x000000a2        0x4 /opt/case/compilers/avr8-gnu-toolchain-linux_x86/bin/../lib/gcc/avr/4.8.1/../../../../avr/lib/avr5/crtm328p.o
                0x000000a2                __vector_22
                0x000000a2                __vector_1
                0x000000a2                __vector_24
                0x000000a2                __vector_12
                0x000000a2                __bad_interrupt
                0x000000a2                __vector_6
                0x000000a2                __vector_3
                0x000000a2                __vector_23
                0x000000a2                __vector_25
                0x000000a2                __vector_11
                0x000000a2                __vector_13
                0x000000a2                __vector_17
                0x000000a2                __vector_19
                0x000000a2                __vector_7
                0x000000a2                __vector_5
                0x000000a2                __vector_4
                0x000000a2                __vector_2
                0x000000a2                __vector_21
                0x000000a2                __vector_15
                0x000000a2                __vector_8
                0x000000a2                __vector_14
                0x000000a2                __vector_10
                0x000000a2                __vector_18
                0x000000a2                __vector_20
                0x000000a6                . = ALIGN (0x2)
 *(.text.*)
 .text._Z7pin_Dirhhc
                0x000000a6       0x3c obj/code.o
                0x000000a6                _Z7pin_Dirhhc
 .text._Z11Timer2_initv
                0x000000e2       0x18 obj/code.o
                0x000000e2                _Z11Timer2_initv
 .text._Z6U_INIThhhh
                0x000000fa       0x40 obj/code.o
                0x000000fa                _Z6U_INIThhhh
 .text._Z13SPI_initSlavev
                0x0000013a        0xe obj/code.o
                0x0000013a                _Z13SPI_initSlavev
 .text._Z15SPI_recieveCharv
                0x00000148        0xa obj/code.o
                0x00000148                _Z15SPI_recieveCharv
 .text.loop     0x00000152       0x14 obj/code.o
                0x00000152                loop
 .text.setup    0x00000166       0x2a obj/code.o
                0x00000166                setup
 .text.startup.main
                0x00000190       0x20 obj/code.o
                0x00000190                main
 .text.pin_Write
                0x000001b0       0x3c obj/slotDetection.o
                0x000001b0                pin_Write
 .text.Timer2_Start
                0x000001ec        0xc obj/slotDetection.o
                0x000001ec                Timer2_Start
 .text.Timer2_Stop
                0x000001f8        0xc obj/slotDetection.o
                0x000001f8                Timer2_Stop
 .text.U_TRIGGER
                0x00000204       0x4c obj/slotDetection.o
                0x00000204                U_TRIGGER
 .text.U_GET_PULSEWIDTH
                0x00000250       0x94 obj/slotDetection.o
                0x00000250                U_GET_PULSEWIDTH
 .text.U_GET_DISTANCE
                0x000002e4       0x38 obj/slotDetection.o
                0x000002e4                U_GET_DISTANCE
 .text.__vector_9
                0x0000031c       0x58 obj/slotDetection.o
                0x0000031c                __vector_9
 .text.FuncslotDetection
                0x00000374      0x156 obj/slotDetection.o
                0x00000374                FuncslotDetection
 .text.reset_system
                0x000004ca       0x24 obj/slotDetection.o
                0x000004ca                reset_system
 .text.SPI_sendChar
                0x000004ee        0xa obj/send.o
                0x000004ee                SPI_sendChar
 .text.Funcsend
                0x000004f8       0x62 obj/send.o
                0x000004f8                Funcsend
 .text.EE_fp_ActivateTask
                0x0000055a       0x76 ./libee.a(ee_thact.o)
                0x0000055a                EE_fp_ActivateTask
 .text.DUMMY_vect
                0x000005d0        0x4 ./libee.a(ee_intvect.o)
                0x000005d0                tag_DUMMY_vect
                0x000005d0                DUMMY_vect
 .text.EE_atmega_intvect
                0x000005d4        0x4 ./libee.a(ee_intvect.o)
                0x000005d4                EE_atmega_intvect
 .text.EE_std_run_task_code
                0x000005d8       0x24 ./libee.a(ee_context.o)
                0x000005d8                EE_std_run_task_code
 .text.EE_rq2stk_exchange
                0x000005fc       0x22 ./libee.a(ee_rqexchg.o)
                0x000005fc                EE_rq2stk_exchange
 .text.EE_rq_insert
                0x0000061e       0x5a ./libee.a(ee_rqinsert.o)
                0x0000061e                EE_rq_insert
 .text.EE_thread_end_instance
                0x00000678       0x78 ./libee.a(ee_thendin.o)
                0x00000678                EE_thread_end_instance
 .text.__vector_16
                0x000006f0       0x94 libarduinosdk.a(wiring.o)
                0x000006f0                __vector_16
 .text.init     0x00000784       0x76 libarduinosdk.a(wiring.o)
                0x00000784                init
 .text.avr-libc.fplib
                0x000007fa       0x58 /opt/case/compilers/avr8-gnu-toolchain-linux_x86/bin/../lib/gcc/avr/4.8.1/../../../../avr/lib/avr5/libm.a(fixunssfsi.o)
                0x000007fa                __fixunssfsi
 .text.avr-libc.fplib
                0x00000852       0x7a /opt/case/compilers/avr8-gnu-toolchain-linux_x86/bin/../lib/gcc/avr/4.8.1/../../../../avr/lib/avr5/libm.a(floatsisf.o)
                0x00000852                __floatunsisf
                0x00000856                __floatsisf
 .text.avr-libc.fplib
                0x000008cc       0x44 /opt/case/compilers/avr8-gnu-toolchain-linux_x86/bin/../lib/gcc/avr/4.8.1/../../../../avr/lib/avr5/libm.a(fp_split3.o)
                0x000008cc                __fp_split3
                0x000008dc                __fp_splitA
 .text.avr-libc.fplib
                0x00000910        0xe /opt/case/compilers/avr8-gnu-toolchain-linux_x86/bin/../lib/gcc/avr/4.8.1/../../../../avr/lib/avr5/libm.a(fp_zero.o)
                0x00000910                __fp_zero
                0x00000912                __fp_szero
 .text.avr-libc.fplib
                0x0000091e        0x4 /opt/case/compilers/avr8-gnu-toolchain-linux_x86/bin/../lib/gcc/avr/4.8.1/../../../../avr/lib/avr5/libm.a(mulsf3.o)
                0x0000091e                __mulsf3
 .text.avr-libc.fplib
                0x00000922       0xc2 /opt/case/compilers/avr8-gnu-toolchain-linux_x86/bin/../lib/gcc/avr/4.8.1/../../../../avr/lib/avr5/libm.a(mulsf3x.o)
                0x00000936                __mulsf3x
                0x0000093a                __mulsf3_pse
 .text.avr-libc.fplib
                0x000009e4        0xc /opt/case/compilers/avr8-gnu-toolchain-linux_x86/bin/../lib/gcc/avr/4.8.1/../../../../avr/lib/avr5/libm.a(fp_inf.o)
                0x000009e4                __fp_inf
 .text.avr-libc.fplib
                0x000009f0        0x6 /opt/case/compilers/avr8-gnu-toolchain-linux_x86/bin/../lib/gcc/avr/4.8.1/../../../../avr/lib/avr5/libm.a(fp_nan.o)
                0x000009f0                __fp_nan
 .text.avr-libc.fplib
                0x000009f6        0xe /opt/case/compilers/avr8-gnu-toolchain-linux_x86/bin/../lib/gcc/avr/4.8.1/../../../../avr/lib/avr5/libm.a(fp_pscA.o)
                0x000009f6                __fp_pscA
 .text.avr-libc.fplib
                0x00000a04        0xe /opt/case/compilers/avr8-gnu-toolchain-linux_x86/bin/../lib/gcc/avr/4.8.1/../../../../avr/lib/avr5/libm.a(fp_pscB.o)
                0x00000a04                __fp_pscB
 .text.avr-libc.fplib
                0x00000a12       0x22 /opt/case/compilers/avr8-gnu-toolchain-linux_x86/bin/../lib/gcc/avr/4.8.1/../../../../avr/lib/avr5/libm.a(fp_round.o)
                0x00000a12                __fp_round
                0x00000a34                . = ALIGN (0x2)
 *(.fini9)
 .fini9         0x00000a34        0x0 /opt/case/compilers/avr8-gnu-toolchain-linux_x86/bin/../lib/gcc/avr/4.8.1/avr5/libgcc.a(_exit.o)
                0x00000a34                exit
                0x00000a34                _exit
 *(.fini9)
 *(.fini8)
 *(.fini8)
 *(.fini7)
 *(.fini7)
 *(.fini6)
 *(.fini6)
 *(.fini5)
 *(.fini5)
 *(.fini4)
 *(.fini4)
 *(.fini3)
 *(.fini3)
 *(.fini2)
 *(.fini2)
 *(.fini1)
 *(.fini1)
 *(.fini0)
 .fini0         0x00000a34        0x4 /opt/case/compilers/avr8-gnu-toolchain-linux_x86/bin/../lib/gcc/avr/4.8.1/avr5/libgcc.a(_exit.o)
 *(.fini0)
                0x00000a38                _etext = .

.data           0x00800100        0xc load address 0x00000a38
                0x00800100                PROVIDE (__data_start, .)
 *(.data)
 .data          0x00800100        0x0 /opt/case/compilers/avr8-gnu-toolchain-linux_x86/bin/../lib/gcc/avr/4.8.1/../../../../avr/lib/avr5/crtm328p.o
 .data          0x00800100        0x0 obj/eecfg.o
 .data          0x00800100        0x0 obj/code.o
 .data          0x00800100        0x0 obj/slotDetection.o
 .data          0x00800100        0x0 obj/send.o
 .data          0x00800100        0x0 ./libee.a(ee_thact.o)
 .data          0x00800100        0x0 ./libee.a(ee_intvect.o)
 .data          0x00800100        0x0 ./libee.a(ee_hal_structs.o)
 .data          0x00800100        0x0 ./libee.a(ee_context.o)
 .data          0x00800100        0x0 ./libee.a(ee_rqexchg.o)
 .data          0x00800100        0x0 ./libee.a(ee_rqinsert.o)
 .data          0x00800100        0x0 ./libee.a(ee_thendin.o)
 .data          0x00800100        0x0 libarduinosdk.a(wiring.o)
 .data          0x00800100        0x0 /opt/case/compilers/avr8-gnu-toolchain-linux_x86/bin/../lib/gcc/avr/4.8.1/../../../../avr/lib/avr5/libm.a(fixunssfsi.o)
 .data          0x00800100        0x0 /opt/case/compilers/avr8-gnu-toolchain-linux_x86/bin/../lib/gcc/avr/4.8.1/../../../../avr/lib/avr5/libm.a(floatsisf.o)
 .data          0x00800100        0x0 /opt/case/compilers/avr8-gnu-toolchain-linux_x86/bin/../lib/gcc/avr/4.8.1/../../../../avr/lib/avr5/libm.a(fp_split3.o)
 .data          0x00800100        0x0 /opt/case/compilers/avr8-gnu-toolchain-linux_x86/bin/../lib/gcc/avr/4.8.1/../../../../avr/lib/avr5/libm.a(fp_zero.o)
 .data          0x00800100        0x0 /opt/case/compilers/avr8-gnu-toolchain-linux_x86/bin/../lib/gcc/avr/4.8.1/../../../../avr/lib/avr5/libm.a(mulsf3.o)
 .data          0x00800100        0x0 /opt/case/compilers/avr8-gnu-toolchain-linux_x86/bin/../lib/gcc/avr/4.8.1/../../../../avr/lib/avr5/libm.a(mulsf3x.o)
 .data          0x00800100        0x0 /opt/case/compilers/avr8-gnu-toolchain-linux_x86/bin/../lib/gcc/avr/4.8.1/../../../../avr/lib/avr5/libm.a(fp_inf.o)
 .data          0x00800100        0x0 /opt/case/compilers/avr8-gnu-toolchain-linux_x86/bin/../lib/gcc/avr/4.8.1/../../../../avr/lib/avr5/libm.a(fp_nan.o)
 .data          0x00800100        0x0 /opt/case/compilers/avr8-gnu-toolchain-linux_x86/bin/../lib/gcc/avr/4.8.1/../../../../avr/lib/avr5/libm.a(fp_pscA.o)
 .data          0x00800100        0x0 /opt/case/compilers/avr8-gnu-toolchain-linux_x86/bin/../lib/gcc/avr/4.8.1/../../../../avr/lib/avr5/libm.a(fp_pscB.o)
 .data          0x00800100        0x0 /opt/case/compilers/avr8-gnu-toolchain-linux_x86/bin/../lib/gcc/avr/4.8.1/../../../../avr/lib/avr5/libm.a(fp_round.o)
 .data          0x00800100        0x0 /opt/case/compilers/avr8-gnu-toolchain-linux_x86/bin/../lib/gcc/avr/4.8.1/avr5/libgcc.a(_exit.o)
 .data          0x00800100        0x0 /opt/case/compilers/avr8-gnu-toolchain-linux_x86/bin/../lib/gcc/avr/4.8.1/avr5/libgcc.a(_copy_data.o)
 .data          0x00800100        0x0 /opt/case/compilers/avr8-gnu-toolchain-linux_x86/bin/../lib/gcc/avr/4.8.1/avr5/libgcc.a(_clear_bss.o)
 *(.data*)
 .data.EE_rqfirst
                0x00800100        0x1 obj/eecfg.o
                0x00800100                EE_rqfirst
 .data.EE_stkfirst
                0x00800101        0x1 obj/eecfg.o
                0x00800101                EE_stkfirst
 .data.EE_th_next
                0x00800102        0x2 obj/eecfg.o
                0x00800102                EE_th_next
 *(.rodata)
 *(.rodata*)
 .rodata.EE_th_dispatch_prio
                0x00800104        0x2 obj/eecfg.o
                0x00800104                EE_th_dispatch_prio
 .rodata.EE_th_ready_prio
                0x00800106        0x2 obj/eecfg.o
                0x00800106                EE_th_ready_prio
 .rodata.EE_hal_thread_body
                0x00800108        0x4 obj/eecfg.o
                0x00800108                EE_hal_thread_body
 *(.gnu.linkonce.d*)
                0x0080010c                . = ALIGN (0x2)
                0x0080010c                _edata = .
                0x0080010c                PROVIDE (__data_end, .)

.bss            0x0080010c       0x20
                0x0080010c                PROVIDE (__bss_start, .)
 *(.bss)
 *(.bss*)
 .bss.EE_sys_ceiling
                0x0080010c        0x1 obj/eecfg.o
                0x0080010c                EE_sys_ceiling
 .bss.send_or_receive
                0x0080010d        0x1 obj/code.o
                0x0080010d                send_or_receive
 .bss.distance  0x0080010e        0x2 obj/code.o
                0x0080010e                distance
 .bss.flag_sensor2
                0x00800110        0x1 obj/slotDetection.o
                0x00800110                flag_sensor2
 .bss.flag_sensor1
                0x00800111        0x1 obj/slotDetection.o
                0x00800111                flag_sensor1
 .bss.flag      0x00800112        0x1 obj/slotDetection.o
                0x00800112                flag
 .bss.sensor2_dist
                0x00800113        0x2 obj/slotDetection.o
                0x00800113                sensor2_dist
 .bss.sensor1_dist
                0x00800115        0x2 obj/slotDetection.o
                0x00800115                sensor1_dist
 .bss.overflows
                0x00800117        0x2 obj/slotDetection.o
                0x00800117                overflows
 .bss.flag_send
                0x00800119        0x2 obj/send.o
                0x00800119                flag_send
 .bss.timer0_fract
                0x0080011b        0x1 libarduinosdk.a(wiring.o)
 .bss.timer0_millis
                0x0080011c        0x4 libarduinosdk.a(wiring.o)
                0x0080011c                timer0_millis
 .bss.timer0_overflow_count
                0x00800120        0x4 libarduinosdk.a(wiring.o)
                0x00800120                timer0_overflow_count
 *(COMMON)
 COMMON         0x00800124        0x3 obj/eecfg.o
                0x00800124                EE_resource_oldceiling
                0x00800125                EE_th_nact
 COMMON         0x00800127        0x3 obj/slotDetection.o
                0x00800127                slot_flag
                0x00800128                duration
 COMMON         0x0080012a        0x2 ./libee.a(ee_hal_structs.o)
                0x0080012a                EE_IRQ_nesting_level
                0x0080012b                EE_std_endcycle_next_tid
                0x0080012c                PROVIDE (__bss_end, .)
                0x00000a38                __data_load_start = LOADADDR (.data)
                0x00000a44                __data_load_end = (__data_load_start + SIZEOF (.data))

.noinit         0x0080012c        0x0
                0x0080012c                PROVIDE (__noinit_start, .)
 *(.noinit*)
                0x0080012c                PROVIDE (__noinit_end, .)
                0x0080012c                _end = .
                0x0080012c                PROVIDE (__heap_start, .)

.eeprom         0x00810000        0x0
 *(.eeprom*)
                0x00810000                __eeprom_end = .

.fuse
 *(.fuse)
 *(.lfuse)
 *(.hfuse)
 *(.efuse)

.lock
 *(.lock*)

.signature
 *(.signature*)

.user_signatures
 *(.user_signatures*)

.stab
 *(.stab)

.stabstr
 *(.stabstr)

.stab.excl
 *(.stab.excl)

.stab.exclstr
 *(.stab.exclstr)

.stab.index
 *(.stab.index)

.stab.indexstr
 *(.stab.indexstr)

.comment        0x00000000       0x30
 *(.comment)
 .comment       0x00000000       0x30 obj/eecfg.o
                                 0x31 (size before relaxing)
 .comment       0x00000000       0x31 obj/code.o
 .comment       0x00000000       0x31 obj/slotDetection.o
 .comment       0x00000000       0x31 obj/send.o
 .comment       0x00000000       0x31 ./libee.a(ee_thact.o)
 .comment       0x00000000       0x31 ./libee.a(ee_intvect.o)
 .comment       0x00000000       0x31 ./libee.a(ee_hal_structs.o)
 .comment       0x00000000       0x31 ./libee.a(ee_context.o)
 .comment       0x00000000       0x31 ./libee.a(ee_rqexchg.o)
 .comment       0x00000000       0x31 ./libee.a(ee_rqinsert.o)
 .comment       0x00000000       0x31 ./libee.a(ee_thendin.o)
 .comment       0x00000000       0x31 libarduinosdk.a(wiring.o)

.debug
 *(.debug)

.line
 *(.line)

.debug_srcinfo
 *(.debug_srcinfo)

.debug_sfnames
 *(.debug_sfnames)

.debug_aranges  0x00000000      0x398
 *(.debug_aranges)
 .debug_aranges
                0x00000000       0x18 obj/eecfg.o
 .debug_aranges
                0x00000018      0x118 obj/code.o
 .debug_aranges
                0x00000130       0xe0 obj/slotDetection.o
 .debug_aranges
                0x00000210       0x60 obj/send.o
 .debug_aranges
                0x00000270       0x20 ./libee.a(ee_thact.o)
 .debug_aranges
                0x00000290       0x28 ./libee.a(ee_intvect.o)
 .debug_aranges
                0x000002b8       0x18 ./libee.a(ee_hal_structs.o)
 .debug_aranges
                0x000002d0       0x20 ./libee.a(ee_context.o)
 .debug_aranges
                0x000002f0       0x20 ./libee.a(ee_rqexchg.o)
 .debug_aranges
                0x00000310       0x20 ./libee.a(ee_rqinsert.o)
 .debug_aranges
                0x00000330       0x20 ./libee.a(ee_thendin.o)
 .debug_aranges
                0x00000350       0x48 libarduinosdk.a(wiring.o)

.debug_pubnames
 *(.debug_pubnames)

.debug_info     0x00000000     0x2980
 *(.debug_info)
 .debug_info    0x00000000      0x1af obj/eecfg.o
 .debug_info    0x000001af      0xbb4 obj/code.o
 .debug_info    0x00000d63      0x983 obj/slotDetection.o
 .debug_info    0x000016e6      0x411 obj/send.o
 .debug_info    0x00001af7      0x398 ./libee.a(ee_thact.o)
 .debug_info    0x00001e8f      0x10d ./libee.a(ee_intvect.o)
 .debug_info    0x00001f9c       0xdf ./libee.a(ee_hal_structs.o)
 .debug_info    0x0000207b      0x1d9 ./libee.a(ee_context.o)
 .debug_info    0x00002254      0x10d ./libee.a(ee_rqexchg.o)
 .debug_info    0x00002361      0x14b ./libee.a(ee_rqinsert.o)
 .debug_info    0x000024ac      0x220 ./libee.a(ee_thendin.o)
 .debug_info    0x000026cc      0x2b4 libarduinosdk.a(wiring.o)
 *(.gnu.linkonce.wi.*)

.debug_abbrev   0x00000000      0xee9
 *(.debug_abbrev)
 .debug_abbrev  0x00000000       0x6d obj/eecfg.o
 .debug_abbrev  0x0000006d      0x34d obj/code.o
 .debug_abbrev  0x000003ba      0x28f obj/slotDetection.o
 .debug_abbrev  0x00000649      0x1c3 obj/send.o
 .debug_abbrev  0x0000080c      0x19c ./libee.a(ee_thact.o)
 .debug_abbrev  0x000009a8       0x6e ./libee.a(ee_intvect.o)
 .debug_abbrev  0x00000a16       0x61 ./libee.a(ee_hal_structs.o)
 .debug_abbrev  0x00000a77       0xf8 ./libee.a(ee_context.o)
 .debug_abbrev  0x00000b6f       0x81 ./libee.a(ee_rqexchg.o)
 .debug_abbrev  0x00000bf0       0xa4 ./libee.a(ee_rqinsert.o)
 .debug_abbrev  0x00000c94      0x123 ./libee.a(ee_thendin.o)
 .debug_abbrev  0x00000db7      0x132 libarduinosdk.a(wiring.o)

.debug_line     0x00000000     0x1739
 *(.debug_line)
 .debug_line    0x00000000       0x9c obj/eecfg.o
 .debug_line    0x0000009c      0x597 obj/code.o
 .debug_line    0x00000633      0x389 obj/slotDetection.o
 .debug_line    0x000009bc      0x208 obj/send.o
 .debug_line    0x00000bc4      0x1db ./libee.a(ee_thact.o)
 .debug_line    0x00000d9f      0x152 ./libee.a(ee_intvect.o)
 .debug_line    0x00000ef1      0x10c ./libee.a(ee_hal_structs.o)
 .debug_line    0x00000ffd      0x179 ./libee.a(ee_context.o)
 .debug_line    0x00001176      0x13e ./libee.a(ee_rqexchg.o)
 .debug_line    0x000012b4      0x14e ./libee.a(ee_rqinsert.o)
 .debug_line    0x00001402      0x189 ./libee.a(ee_thendin.o)
 .debug_line    0x0000158b      0x1ae libarduinosdk.a(wiring.o)

.debug_frame    0x00000000      0x6cc
 *(.debug_frame)
 .debug_frame   0x00000000      0x268 obj/code.o
 .debug_frame   0x00000268      0x1e0 obj/slotDetection.o
 .debug_frame   0x00000448       0xd0 obj/send.o
 .debug_frame   0x00000518       0x34 ./libee.a(ee_thact.o)
 .debug_frame   0x0000054c       0x34 ./libee.a(ee_intvect.o)
 .debug_frame   0x00000580       0x24 ./libee.a(ee_context.o)
 .debug_frame   0x000005a4       0x24 ./libee.a(ee_rqexchg.o)
 .debug_frame   0x000005c8       0x24 ./libee.a(ee_rqinsert.o)
 .debug_frame   0x000005ec       0x24 ./libee.a(ee_thendin.o)
 .debug_frame   0x00000610       0xbc libarduinosdk.a(wiring.o)

.debug_str      0x00000000      0xc94
 *(.debug_str)
 .debug_str     0x00000000      0x195 obj/eecfg.o
                                0x1c9 (size before relaxing)
 .debug_str     0x00000195      0x5c0 obj/code.o
                                0x67c (size before relaxing)
 .debug_str     0x00000755       0xb0 obj/slotDetection.o
                                0x33c (size before relaxing)
 .debug_str     0x00000805       0x57 obj/send.o
                                0x218 (size before relaxing)
 .debug_str     0x0000085c      0x195 ./libee.a(ee_thact.o)
                                0x2f6 (size before relaxing)
 .debug_str     0x000009f1       0x4b ./libee.a(ee_intvect.o)
                                0x184 (size before relaxing)
 .debug_str     0x00000a3c       0x3d ./libee.a(ee_hal_structs.o)
                                0x164 (size before relaxing)
 .debug_str     0x00000a79       0x62 ./libee.a(ee_context.o)
                                0x1fe (size before relaxing)
 .debug_str     0x00000adb       0x3d ./libee.a(ee_rqexchg.o)
                                0x177 (size before relaxing)
 .debug_str     0x00000b18       0x39 ./libee.a(ee_rqinsert.o)
                                0x183 (size before relaxing)
 .debug_str     0x00000b51       0x95 ./libee.a(ee_thendin.o)
                                0x243 (size before relaxing)
 .debug_str     0x00000be6       0xae libarduinosdk.a(wiring.o)
                                0x19b (size before relaxing)

.debug_loc      0x00000000     0x1214
 *(.debug_loc)
 .debug_loc     0x00000000      0x661 obj/code.o
 .debug_loc     0x00000661      0x626 obj/slotDetection.o
 .debug_loc     0x00000c87      0x212 obj/send.o
 .debug_loc     0x00000e99       0xc4 ./libee.a(ee_thact.o)
 .debug_loc     0x00000f5d       0x21 ./libee.a(ee_context.o)
 .debug_loc     0x00000f7e       0x6b ./libee.a(ee_rqinsert.o)
 .debug_loc     0x00000fe9      0x22b libarduinosdk.a(wiring.o)

.debug_macinfo
 *(.debug_macinfo)

.debug_pubtypes
 *(.debug_pubtypes)

.debug_ranges   0x00000000      0x2c8
 *(.debug_ranges)
 .debug_ranges  0x00000000      0x108 obj/code.o
 .debug_ranges  0x00000108       0xd0 obj/slotDetection.o
 .debug_ranges  0x000001d8       0x50 obj/send.o
 .debug_ranges  0x00000228       0x10 ./libee.a(ee_thact.o)
 .debug_ranges  0x00000238       0x18 ./libee.a(ee_intvect.o)
 .debug_ranges  0x00000250       0x10 ./libee.a(ee_context.o)
 .debug_ranges  0x00000260       0x10 ./libee.a(ee_rqexchg.o)
 .debug_ranges  0x00000270       0x10 ./libee.a(ee_rqinsert.o)
 .debug_ranges  0x00000280       0x10 ./libee.a(ee_thendin.o)
 .debug_ranges  0x00000290       0x38 libarduinosdk.a(wiring.o)

.debug_macro
 *(.debug_macro)
OUTPUT(arduino.elf elf32-avr)
LOAD linker stubs
